S01B000050726F6A6563745F345F536D616C6C5F43616C2E73726563D8
S11300000C942A000C9447000C9447000C9447006D
S11300100C9447000C9447000C9447000C94470040
S11300200C9447000C9447000C9447000C94470030
S11300300C9447000C9447000C9447000C94470020
S11300400C9447000C9447000C9447000C94470010
S11300500C94470011241FBECFE5D8E0DEBFCDBF0E
S113006011E0A0E6B0E0EEE4FAE202C005900D92E1
S1130070A638B107D9F711E0A6E8B1E001C01D9296
S1130080A638B107E1F70E94E9050C9425150C94F4
S11300900000CF93DF9300D0CDB7DEB789836A83A6
S11300A089816A8141E00E9473010F900F90DF9172
S11300B0CF910895CF93DF9300D0CDB7DEB7898376
S11300C06A8389816A8141E00E9404020F900F9043
S11300D0DF91CF910895CF93DF9300D0CDB7DEB7F2
S11300E089836A8389816A8140E00E9404020F90B7
S11300F00F90DF91CF910895CF93DF9300D0CDB7C8
S1130100DEB789836A8389816A810E94FA020F902B
S11301100F90DF91CF910895CF93DF9300D0CDB7A7
S1130120DEB789836A8389816A810E9495020F9070
S11301300F90DF91CF910895CF93DF93FC01DA0103
S1130140613051F4408150E060E070E04D935D9384
S11301506D937C931397BAC06230C9F4808190E0A8
S1130160880F991F9C01220F331F220F331F820F08
S1130170931F2181820F911DAC01662757FD609565
S1130180762F4D935D936D937C9313979FC063304B
S113019029F5808190E024E630E0829FA001839FCE
S11301A0500D929F500D1124818190E0880F991F6A
S11301B09C01220F331F220F331F820F931F480FFE
S11301C0591F8281480F511D662757FD6095762F70
S11301D04D935D936D937C93139778C0643091F540
S11301E0808190E028EE33E0829FB001839F700D00
S11301F0929F700D1124818190E024E630E0829F6B
S1130200A001839F500D929F500D1124460F571F3C
S1130210828190E0880F991F9C01220F331F220FC7
S1130220331F820F931F480F591F8381480F511D9D
S1130230662757FD6095762F4D935D936D937C9360
S1130240139744C0653009F041C0808190E020E1FB
S113025037E2829FB001839F700D929F700D11242D
S1130260818190E028EE33E0829FA001839F500DAE
S1130270929F500D1124EB01C40FD51F838190E090
S1130280880F991F9C01220F331F220F331FBC01BB
S1130290620F731F828190E024E630E0829FA00108
S11302A0839F500D929F500D1124460F571FC40F6A
S11302B0D51F8481C80FD11DAE01662757FD6095F7
S11302C0762F4D935D936D937C931397DF91CF912C
S11302D00895442339F0E82FF92F80E061938F5F6C
S11302E08417E1F70895843409F471C0853448F41F
S11302F0823499F1833408F04DC0813409F083C00D
S11303000FC0823651F1833620F4813609F07BC068
S113031007C0833609F43EC0843609F074C057C060
S1130320413069F42AB381E090E0AC0102C0440F8B
S1130330551F6A95E2F7BA01622B6ABB08952AB386
S113034081E090E0AC0102C0440F551F6A95E2F7CA
S1130350BA01609562236ABB0895413069F427B3FA
S113036081E090E0AC0102C0440F551F6A95E2F7AA
S1130370BA01622B67BB089527B381E090E0AC011A
S113038002C0440F551F6A95E2F7BA0160956223D3
S113039067BB0895413069F424B381E090E0AC0177
S11303A002C0440F551F6A95E2F7BA01622B64BB81
S11303B0089524B381E090E0AC0102C0440F551FBE
S11303C06A95E2F7BA016095622364BB08954130EF
S11303D069F421B381E090E0AC0102C0440F551FE1
S11303E06A95E2F7BA01622B61BB089521B381E0FB
S11303F090E0AC0102C0440F551F6A95E2F7BA01C0
S11304006095622361BB0895843409F471C0853416
S113041048F4823499F1833408F04DC0813409F0F2
S113042083C00FC0823651F1833620F4813609F03F
S11304307BC007C0833609F43EC0843609F074C01B
S113044057C0413069F42BB381E090E0AC0102C0A5
S1130450440F551F6A95E2F7BA01622B6BBB0895EE
S11304602BB381E090E0AC0102C0440F551F6A95A4
S1130470E2F7BA01609562236BBB0895413069F4D9
S113048028B381E090E0AC0102C0440F551F6A9587
S1130490E2F7BA01622B68BB089528B381E090E0CB
S11304A0AC0102C0440F551F6A95E2F7BA0160958A
S11304B0622368BB0895413069F425B381E090E07C
S11304C0AC0102C0440F551F6A95E2F7BA01622BD2
S11304D065BB089525B381E090E0AC0102C0440FF0
S11304E0551F6A95E2F7BA016095622365BB0895CA
S11304F0413069F422B381E090E0AC0102C0440FC2
S1130500551F6A95E2F7BA01622B62BB089522B3C4
S113051081E090E0AC0102C0440F551F6A95E2F7F8
S1130520BA016095622362BB0895843409F44EC015
S1130530853440F4823431F18334B0F5813409F0E8
S113054057C00EC08236F1F0833620F4813609F0AC
S11305504FC006C0833641F1843609F049C036C025
S113056029B381E090E0062E02C0880F991F0A94F7
S1130570E2F730E08223932302C0959587956A952C
S1130580E2F7089526B381E090E0062E02C0880FBA
S1130590991F0A94E2F730E08223932302C09595D1
S11305A087956A95E2F7089523B381E090E0062EDB
S11305B002C0880F991F0A94E2F730E08223932344
S11305C002C0959587956A95E2F7089520B381E076
S11305D090E0062E02C0880F991F0A94E2F730E0DB
S11305E08223932302C0959587956A95E2F708952F
S11305F080E00895843409F43DC0853440F48234A5
S1130600F9F0833450F5813409F040C00CC08236CF
S1130610B9F0833618F48136C9F505C08336E9F09C
S11306208436A1F527C02BB381E090E0AC0102C071
S1130630440F551F6A95E2F7BA0162276BBB089510
S113064028B381E090E0AC0102C0440F551F6A95C5
S1130650E2F7BA01622768BB089525B381E090E010
S1130660AC0102C0440F551F6A95E2F7BA01622734
S113067065BB089522B381E090E0AC0102C0440F51
S1130680551F6A95E2F7BA01622762BB0895843464
S1130690D9F0853438F4823499F0833498F4813471
S11306A0A1F40CC0823661F0833618F4813669F403
S11306B005C0833639F0843641F406C06ABB089518
S11306C067BB089564BB089561BB08958434D9F071
S11306D0853438F4823499F0833498F48134A1F465
S11306E00CC0823661F0833618F4813669F405C093
S11306F0833639F0843641F406C06BBB089568BB79
S1130700089565BB089562BB08958434D9F0853497
S113071038F4823499F0833498F48134A9F40CC009
S1130720823661F0833618F4813671F405C083365D
S113073039F0843649F406C089B3089586B3089520
S113074083B3089580B3089580E00895843409F153
S1130750853438F48234A9F08334B8F48134E1F474
S11307600CC0823671F0833618F48136A9F405C0C2
S1130770833659F0843681F40CC08BB380958BBBDF
S1130780089588B3809588BB089585B3809585BB0B
S1130790089582B3809582BB0895843409F471C0AE
S11307A0853448F4823499F1833408F04DC081349F
S11307B009F083C00FC0823651F1833620F48136AC
S11307C009F07BC007C0833609F43EC0843609F0C3
S11307D074C057C0413069F42BB381E090E0AC01A0
S11307E002C0440F551F6A95E2F7BA01622B6BBB36
S11307F008952BB381E090E0AC0102C0440F551F73
S11308006A95E2F7BA01609562236BBB08954130A3
S113081069F428B381E090E0AC0102C0440F551F95
S11308206A95E2F7BA01622B68BB089528B381E0A8
S113083090E0AC0102C0440F551F6A95E2F7BA017B
S11308406095622368BB0895413069F425B381E063
S113085090E0AC0102C0440F551F6A95E2F7BA015B
S1130860622B65BB089525B381E090E0AC0102C022
S1130870440F551F6A95E2F7BA016095622365BB80
S11308800895413069F422B381E090E0AC0102C0E4
S1130890440F551F6A95E2F7BA01622B62BB0895B3
S11308A022B381E090E0AC0102C0440F551F6A9569
S11308B0E2F7BA016095622362BB0895CF92DF929A
S11308C0EF92FF920F931F93CF93DF93082F162F6E
S11308D0653028F5862F8C5F681708F5C0E0D0E0F6
S11308E0EE24FF24E394C42EDD246C2F610FC70192
S11308F00C2E02C0880F991F0A94E2F78C219D21C7
S11309009C010C2E02C0359527950A94E2F7A901A3
S1130910802F0E9404022196C430D10531F7DF9163
S1130920CF911F910F91FF90EF90DF90CF9008959A
S113093084E660E041E00E94730184E661E041E006
S11309400E94730184E662E041E00E94730184E640
S113095063E041E00E94730184E664E040E00E94A9
S1130960730184E665E040E00E94730184E666E07A
S113097040E00E94730184E667E040E00E94730156
S113098084E664E041E00E94CD0384E665E041E052
S11309900E94CD0384E666E041E00E94CD0384E634
S11309A067E041E00E94CD0308950F931F93CF9316
S11309B0DF93CDB7DEB760970FB6F894DEBF0FBEF6
S11309C0CDBFDE011196E0E6F0E080E101900D92EA
S11309D08150E1F700E084E660E04FE00E945E04AD
S11309E084E6602F40E00E94040210E0612F6C5FF7
S11309F084E60E949502882361F4E02FF0E0EE0F74
S1130A00FF1FEE0FFF1FE10FF11DEC0FFD1F818192
S1130A1004C01F5F143051F70BC060960FB6F894F2
S1130A20DEBF0FBECDBFDF91CF911F910F9108950F
S1130A300F5F043081F68FEFF0CF82E461E041E094
S1130A400E94040287E893E10197F1F700C00000D7
S1130A5082E461E040E00E94040287E893E10197A8
S1130A60F1F700C000000895CF93C82F82E462E03C
S1130A7040E00E94040282E460E041E00E9404023B
S1130A804C2F42954F7081E464E00E945E040E9402
S1130A901D0581E464E04C2F0E945E040E941D0544
S1130AA0CF910895CF93C82F82E462E040E00E9482
S1130AB0040282E460E040E00E9404024C2F42956C
S1130AC04F7081E464E00E945E040E941D0581E48D
S1130AD064E04C2F0E945E040E941D058FE99FE094
S1130AE00197F1F700C00000CF910895CF93DF93F1
S1130AF0EC018881882331F021960E943405899184
S1130B008823D9F7DF91CF910895982F915092308F
S1130B1080F4662389F0613190F4813029F4862FC2
S1130B2090E081589F4F0DC0862F90E081549F4FD5
S1130B3008C080E890E005C080E890E002C080E84A
S1130B4090E00E945205089581E00E9452058FE1D1
S1130B509EE40197F1F700C00000089582E00E942E
S1130B6052058FE19EE40197F1F700C0000008955B
S1130B70CF938FE79AE1A6E081509040A040E1F73F
S1130B8000C00000C4E081E46C2F41E00E947301C6
S1130B90CF5FC830C1F782E462E041E00E94730194
S1130BA082E460E041E00E94730182E461E041E09C
S1130BB00E9473010E94AE0588E20E9452058EE0F5
S1130BC00E9452050E94A40586E00E945205CF911E
S1130BD00895CF93DF93CDB7DEB7A8970FB6F894F7
S1130BE0DEBF0FBECDBF0E94B8050E94980482E606
S1130BF064E00E94490019821A821B821C821D82B1
S1130C001E821F82188619861A861B861C861D86DC
S1130C101E861F86188AFE01799680E1DF011D92E7
S1130C208A95E9F780E790E00E94760582E664E021
S1130C300E945A008FEF94E3ACE081509040A040B2
S1130C40E1F700C000000E94A40582E664E00E946F
S1130C506B006624882444243324552499242224B4
S1130C60239403C08824689481F882E664E00E9497
S1130C706B000E94D504082F8F3FD9F38FEF94E3C4
S1130C80ACE081509040A040E1F700C00000013486
S1130C90B1F40E94A40519821A821B821C821D824F
S1130CA01E821F821886CE014996692D40E10E945A
S1130CB06901692C892C492C392C592C47C0102FD7
S1130CC010531A3018F5802F0E943405882069F4D7
S1130CD0662009F0D3C0E9E1F0E0EC0FFD1FE50D5B
S1130CE0F11D10835394422C53C2662009F0ABC00B
S1130CF092E0891609F0A9C0E9E1F0E0EC0FFD1FCC
S1130D00E50DF11D10835394422C42C20A32F1F4D2
S1130D104420A1F40E94A40519821A821B821C8219
S1130D201D821E821F821886CE014996692D40E1DC
S1130D300E946901892C392C592C2AC28AE20E940A
S1130D4034050F2EFAE23F2EF02D83C00F32F1F45A
S1130D504420A1F40E94A40519821A821B821C82D9
S1130D601D821E821F821886CE014996692D40E19C
S1130D700E946901892C392C592C0AC28FE20E94E5
S1130D8034050F2EFFE23F2EF02D63C00D32F1F437
S1130D904420A1F40E94A40519821A821B821C8299
S1130DA01D821E821F821886CE014996692D40E15C
S1130DB00E946901892C392C592CEAC18DE20E94C8
S1130DC034050F2EFDE23F2EF02D43C00B32F1F41B
S1130DD04420A1F40E94A40519821A821B821C8259
S1130DE01D821E821F821886CE014996692D40E11C
S1130DF00E946901892C392C592CCAC18BE20E94AA
S1130E0034050F2EFBE23F2EF02D23C00D33F1F4F9
S1130E104420A1F40E94A40519821A821B821C8218
S1130E201D821E821F821886CE014996692D40E1DB
S1130E300E946901892C392C592CAAC18DE30E9486
S1130E403405622C03C0422C01C0422CA1E08A1656
S1130E50C1F46620A9F4CE014996652DAE014F5F19
S1130E605F4F0E949C00CE014996692D40E10E948B
S1130E7069018824689481F8592C1BC0422C01C054
S1130E80822CB1E06B1689F482E0881609F0EDCE6D
S1130E90CE014996652DAE014B5F5F4F0E949C00C9
S1130EA06624689461F8592C08C092E0891609F008
S1130EB0DCCEA2E06A1609F0D5CEBBE23B1609F4FB
S1130EC080C0B31528F08AE2381609F08EC009C034
S1130ED09DE2391609F44AC0AFE23A1609F085C01A
S1130EE015C06D817E818F81988529813A814B81DE
S1130EF05C810E94AD148B019C0109871A872B87A2
S1130F003C879D869E869F86988A6FC00D811E8130
S1130F102F8138850115110521053105A1F40E94A1
S1130F20A40588E790E00E94760582E664E00E94CA
S1130F305A008FEF99E6A8E181509040A040E1F774
S1130F4000C0000052C069817A818B819C81A90113
S1130F5098010E94CC1489019A0109871A872B876A
S1130F603C879D869E869F86988A3FC089819A8108
S1130F70AB81BC814D815E816F8178858417950733
S1130F80A607B70778F0841B950BA60BB70B8C014B
S1130F909D0189871A872B873C879D869E869F861D
S1130FA0988A23C0481B590B6A0B7B0B8A019B014F
S1130FB009871A872B873C879D869E869F86988AF9
S1130FC014C00D811E812F81388589819A81AB815E
S1130FD0BC81080F191F2A1F3B1F09871A872B87FB
S1130FE03C879D869E869F86988A79858A856B85AF
S1130FF05C854D853E852F859889872B862B852B8F
S1131000842B832B822B892BA9F48D819E81AF8124
S1131010B8850097A105B10509F427CE9FE23916DA
S113102009F423CE82E060E10E94850580E30E94FA
S113103034051BCE79858A856B855C854D853E8517
S11310402F859889872B862B852B842B832B822BAA
S1131050892B09F40ACE82E060E10E94850584E0D0
S11310600E94520579856A855B854C853D852E8570
S11310709F858889798B6A8B5B8B4C8B3D8B2E8B00
S11310809F8B888F79898A896B895C894D893E8990
S11310902F89988D872B862B852B842B832B822B52
S11310A0892B71F1539429893A894B895C896D891B
S11310B07E898F89988D0F2EFAE0AF2EF02DB92CF2
S11310C0C92CD92CE92CF92C092D192D0E94CA08F8
S11310D0298B3A8B4B8B5C8B6D8B7E8B8F8B988F94
S11310E079898A896B895C894D893E892F89988D94
S11310F0872B862B852B842B832B822B892B91F694
S1131100552079F1792C29853A854B855C856D8547
S11311107E858F8598890F2EFAE0AF2EF02DB92C9D
S1131120C92CD92CE92CF92C092D192D0E940F0F4B
S1131130822F805D0E94340529853A854B855C8524
S11311406D857E858F8598890E94CA0829873A878C
S11311504B875C876D877E878F87988B7394751414
S113116091F64D815E816F81788589819A81AB8109
S1131170BC8184179507A607B70730F4ADE23A1689
S113118019F48DE20E94340586E00E9452056DCD6B
S1131190692C8BCEA4E3B0E0E0EDF8E00C94EF14FE
S11311A0298B3A8B4B8B5C8B6D8B7E8B8F8B988FC3
S11311B0A986BA86CB86DC86ED86FE860F87188BD9
S11311C089849A84AB84BC848D859E85AF85B889D7
S11311D009891A892B893C890DA31EA32FA338A73B
S11311E0CD88DE88EF88F88C0097A105B10509F059
S11311F0B5C3C814D904EA04FB0408F04DC110E0D7
S1131200811610E0910611E0A10610E0B10658F431
S11312102FEF82169104A104B10409F090F480E048
S113122090E0DC0117C030E0831630E0930630E034
S1131230A30631E0B30650F480E190E0A0E0B0E012
S113124009C088E090E0A0E0B0E004C088E190E04C
S1131250A0E0B0E0B501A401082E04C0769567951E
S1131260579547950A94D2F7FA01EB57FF4F20811F
S113127040E250E060E070E0481B590B6A0B7B0BC6
S1131280421B510961097109411551056105710537
S1131290A1F1042E04C0880C991CAA1CBB1C0A943E
S11312A0D2F797018601042E04C0000F111F221FDC
S11312B0331F0A94D2F780E290E0841B950BCDA0F3
S11312C0DEA0EFA0F8A404C0F694E794D794C794E2
S11312D08A95D2F7C02AD12AE22AF32A0DA11EA1A7
S11312E02FA138A504C0000F111F221F331F4A95D8
S11312F0D2F70DA31EA32FA338A7250166247724B4
S1131300950184012070307009A31AA32BA33CA378
S1131310C701B601A30192010E94CC142D8F3E8F08
S11313204F8F58A3698F7A8F8B8F9C8FC701B6011B
S1131330A30192010E94CC14CA01B90129A13AA1C6
S11313404BA15CA10E94AD14AB01BC01098D1A8DA7
S11313502B8D3C8D7801DD24CC240DA11EA12FA161
S113136038A5C901AA27BB27C82AD92AEA2AFB2AF1
S11313700D8D1E8D2F8D38A1C416D506E606F706F1
S113138038F50150104020403040098F1A8F2B8FC0
S11313903C8FC80CD91CEA1CFB1CC814D904EA04F1
S11313A0FB04D0F0C416D506E606F706A8F40D8DA6
S11313B01E8D2F8D38A10250104020403040098FDF
S11313C01A8F2B8F3C8FC80CD91CEA1CFB1C04C041
S11313D0098F1A8F2B8F3C8FC41AD50AE60AF70A95
S11313E0C701B601A30192010E94CC142D8F3E8F38
S11313F04F8F58A369A77AA78BA79CA7C701B601EB
S1131400A30192010E94CC14CA01B90129A13AA1F5
S11314104BA15CA10E94AD146B017C0149A55AA5A6
S11314206BA57CA59A01112700274DA15EA16FA190
S113143078A560707070042B152B262B372B8D8D9F
S11314409E8DAF8DB8A10C151D052E053F05C0F46A
S11314500197A109B109080D191D2A1D3B1D081585
S113146019052A053B0560F00C151D052E053F05E1
S113147038F48D8D9E8DAF8DB8A10297A109B10965
S1131480098D1A8D2B8D3C8D7801DD24CC24C82A3E
S1131490D92AEA2AFB2AA5C481149104A104B1041F
S11314A051F461E070E080E090E0A50194010E94B5
S11314B0CC1449015A0110E0811610E0910611E0A4
S11314C0A10610E0B10658F42FEF82169104A1048E
S11314D0B10409F090F480E090E0DC0117C030E042
S11314E0831630E0930630E0A30631E0B30650F4EF
S11314F080E190E0A0E0B0E009C088E090E0A0E0E6
S1131500B0E004C088E190E0A0E0B0E0B501A4013F
S1131510082E04C076956795579547950A94D2F797
S1131520FA01EB57FF4F2081AC01BD01420F511D61
S1131530611D711D80E290E0A0E0B0E0841B950B7A
S1131540A60BB70B51F4C818D908EA08FB08F1E058
S11315504F2E512C612C712C24C1082E04C0880CF0
S1131560991CAA1CBB1C0A94D2F797018601042E6D
S113157004C036952795179507950A94D2F709A3C1
S11315801AA32BA33CA397018601082E04C0000FC5
S1131590111F221F331F0A94D2F70D8F1E8F2F8F16
S11315A038A30DA11EA12FA138A504C036952795F7
S11315B0179507954A95D2F7B901A8010D8D1E8D8F
S11315C02F8D38A1042B152B262B372B0D8F1E8F17
S11315D02F8F38A30DA11EA12FA138A504C0000F81
S11315E0111F221F331F8A95D2F70DA31EA32FA309
S11315F038A7250166247724950184012070307072
S113160009A71AA72BA73CA769A17AA18BA19CA122
S1131610A30192010E94CC14298F3A8F4B8F5C8FC7
S11316206B017C0169A17AA18BA19CA1A301920108
S11316300E94CC14CA01B90129A53AA54BA55CA501
S11316400E94AD14AB01BC017601DD24CC240D8DC8
S11316501E8D2F8D38A1C901AA27BB27C82AD92AD4
S1131660EA2AFB2A098D1A8D2B8D3C8DC416D506CA
S1131670E606F70638F5015010402040304009A333
S11316801AA32BA33CA3C80CD91CEA1CFB1CC8142A
S1131690D904EA04FB04D0F0C416D506E606F7061E
S11316A0A8F4098D1A8D2B8D3C8D025010402040DA
S11316B0304009A31AA32BA33CA3C80CD91CEA1CD1
S11316C0FB1C04C009A31AA32BA33CA3C41AD50A68
S11316D0E60AF70AC701B601A30192010E94CC14DD
S11316E0298F3A8F4B8F5C8F6DA77EA78FA798ABFE
S11316F0C701B601A30192010E94CC14CA01B90129
S113170029A53AA54BA55CA50E94AD148B019C01AB
S11317104DA55EA56FA578A9DA01992788274D8D77
S11317205E8D6F8D78A160707070842B952BA62BC5
S1131730B72B498D5A8D6B8D7C8D80179107A2072D
S1131740B307F0F44150504060407040880D991D3B
S1131750AA1DBB1D88159905AA05BB0588F080172D
S11317609107A207B30760F4498D5A8D6B8D7C8D68
S11317704250504060407040880D991DAA1DBB1D09
S11317806C017D01C01AD10AE20AF30A09A11AA167
S11317902BA13CA1380155244424442A552A662A05
S11317A0772A8501222733270D8F1E8F2F8F38A389
S11317B0950184012070307009A71AA72BA73CA7B4
S11317C0C701B6012D8D3E8D4F8D58A10E94CC14BA
S11317D0298F3A8F4B8F5C8F69A37AA38BA39CA329
S11317E0C701B6012D8D3E8D4F8D58A10E94CC149A
S11317F0CA01B90129A53AA54BA55CA50E94AD145F
S1131800AB01BC0109A11AA12BA13CA17801DD24E3
S1131810CC240DA11EA12FA138A5C901AA27BB273D
S1131820C82AD92AEA2AFB2A098D1A8D2B8D3C8DC8
S1131830C416D506E606F70638F5015010402040D8
S1131840304009A31AA32BA33CA3C80CD91CEA1C3F
S1131850FB1CC814D904EA04FB04D0F0C416D50652
S1131860E606F706A8F4098D1A8D2B8D3C8D0250DF
S113187010402040304009A31AA32BA33CA3C80C5A
S1131880D91CEA1CFB1C04C009A31AA32BA33CA368
S1131890C41AD50AE60AF70AC701B6012D8D3E8D92
S11318A04F8D58A10E94CC14298F3A8F4B8F5C8F97
S11318B06DA77EA78FA798ABC701B6012D8D3E8D6E
S11318C04F8D58A10E94CC14CA01B90129A53AA58B
S11318D04BA55CA50E94AD148B019C014DA55EA592
S11318E06FA578A9DA01992788274DA15EA16FA178
S11318F078A560707070842B952BA62BB72B498D1F
S11319005A8D6B8D7C8D80179107A207B307D0F495
S11319104150504060407040880D991DAA1DBB1D68
S113192088159905AA05BB0568F080179107A207D9
S1131930B30740F4498D5A8D6B8D7C8D42505040D5
S11319406040704009A11AA12BA13CA17801DD24BB
S1131950CC24C42AD52AE62AF72A46C2C816D906B0
S1131960EA06FB0608F42DC2803010E0910711E06E
S1131970A10710E0B10750F48F3F9105A105B1050F
S113198009F088F400E010E0980116C0803020E0EF
S1131990920720E0A20721E0B20750F400E110E032
S11319A020E030E009C008E010E020E030E004C0AE
S11319B008E110E020E030E0AC01BD01002E04C0DD
S11319C076956795579547950A94D2F7FA01EB57A0
S11319D0FF4F4081040F111D211D311D40E250E0D5
S11319E060E070E0401B510B620B730BA1F48C158B
S11319F09D05AE05BF0508F4EBC10DA11EA12FA1E5
S1131A0038A5442455243201081519052A053B0537
S1131A1008F0E1C1D9C1342E2C013D0104C0440CAD
S1131A20551C661C771C4A95D2F7D501C401002EBB
S1131A3004C0B695A795979587950A94D2F7482A36
S1131A40592A6A2A7B2AA5019401032C04C0220F77
S1131A50331F441F551F0A94D2F729A73AA74BA74F
S1131A605CA7B701A601002E04C07695679557952B
S1131A7047950A94D2F749A35AA36BA37CA3C70141
S1131A80B601032C04C0660F771F881F991F0A94A0
S1131A90D2F76D8F7E8F8F8F98A38DA19EA1AFA15A
S1131AA0B8A504C0B695A795979587950A95D2F7DA
S1131AB04D8D5E8D6F8D78A1482B592B6A2B7B2B16
S1131AC04D8F5E8F6F8F78A34301AA24BB249301AB
S1131AD08201207030700DA71EA72FA738AB69A113
S1131AE07AA18BA19CA1A50194010E94CC14298FF9
S1131AF03A8F4B8F5C8F6B017C0169A17AA18BA11A
S1131B009CA1A50194010E94CC14CA01B9012DA580
S1131B103EA54FA558A90E94AD14DC01CB01760166
S1131B20DD24CC240D8D1E8D2F8D38A1A9016627AF
S1131B307727C42AD52AE62AF72A098D1A8D2B8DF0
S1131B403C8DC816D906EA06FB0638F5015010404C
S1131B502040304009A31AA32BA33CA3C40CD51CDA
S1131B60E61CF71CC414D504E604F704D0F0C81628
S1131B70D906EA06FB06A8F4098D1A8D2B8D3C8D37
S1131B80025010402040304009A31AA32BA33CA3C9
S1131B90C40CD51CE61CF71C04C009A31AA32BA370
S1131BA03CA3C81AD90AEA0AFB0AC701B601A5016F
S1131BB094010E94CC14298F3A8F4B8F5C8F69ABB0
S1131BC07AAB8BAB9CABC701B601A50194010E9413
S1131BD0CC14CA01B9012DA53EA54FA558A90E9450
S1131BE0AD144B015C0149A95AA96BA97CA99A01BE
S1131BF0112700278D8D9E8DAF8DB8A1A070B07078
S1131C00082B192B2A2B3B2B898D9A8DAB8DBC8DE0
S1131C10081519052A053B05E0F40197A109B10946
S1131C20040D151D261D371D04151505260537053C
S1131C3080F0081519052A053B0558F4898D9A8DFD
S1131C40AB8DBC8D0297A109B109040D151D261D8C
S1131C50371DB901A801481959096A097B094D8F33
S1131C605E8F6F8F78A309A11AA12BA13CA17801E3
S1131C70DD24CC24C82AD92AEA2AFB2AFFEF8F2E96
S1131C80FFEF9F2EA12CB12C8C209D20AE20BF20D5
S1131C90870122273327098F1A8F2B8F3C8F49A462
S1131CA05AA46BA47CA42FEF3FEF40E050E0422203
S1131CB053226422752229A53AA54BA55CA58A0165
S1131CC02227332709A31AA32BA33CA3C501B401DC
S1131CD0A30192010E94AD1469A77AA78BA79CA7C0
S1131CE0C501B40129A13AA14BA15CA10E94AD1484
S1131CF04B015C01698D7A8D8B8D9C8DA3019201C2
S1131D000E94AD142B013C01698D7A8D8B8D9C8DC5
S1131D1029A13AA14BA15CA10E94AD14AB01BC0165
S1131D20840C951CA61CB71C09A51AA52BA53CA5BB
S1131D30C901AA27BB27880E991EAA1EBB1E84149C
S1131D409504A604B70420F4405050406F4F7F4FD1
S1131D50C501AA27BB27840F951FA61FB71F0D8D8A
S1131D601E8D2F8D38A1081719072A073B0718F174
S1131D7080179107A207B307A1F554019924882479
S1131D8089A59AA5ABA5BCA5A070B070880E991EB4
S1131D90AA1EBB1E4DA15EA16FA178A5032C04C091
S1131DA0440F551F661F771F0A94D2F7481559052B
S1131DB06A057B05B0F40894C108D108E108F1086C
S1131DC010C0442455243201CC24DD2476010CC0F7
S1131DD044245524320181E0C82ED12CE12CF12C6D
S1131DE003C0442455243201FE01319688E0DF010A
S1131DF01D928A95E9F7C982DA82EB82FC824D82D0
S1131E005E826F8278862C2D3A814B815C81642DB1
S1131E107E818F819885E496E1E10C940B15A4E30F
S1131E20B0E0E5E1FFE00C94EE14F82FE92FA98669
S1131E30BA86CB86DC86ED86FE860F87188B89846E
S1131E409A84AB84BC848D859E85AF85B889298F9F
S1131E503A8F4B8F5C8F6B01EF2EFE2E0097A105FE
S1131E60B10509F0A2C2C814D904EA04FB0408F0BD
S1131E7087C000E0801600E0900601E0A00600E0C4
S1131E80B00658F41FEF81169104A104B10409F0BF
S1131E9090F480E090E0DC0117C020E0821620E09E
S1131EA0920620E0A20621E0B20650F480E190E020
S1131EB0A0E0B0E009C088E090E0A0E0B0E004C099
S1131EC088E190E0A0E0B0E0B501A401082E04C0D0
S1131ED076956795579547950A94D2F7FA01EB578B
S1131EE0FF4F208140E250E060E070E0481B590B56
S1131EF06A0B7B0B421B5109610971094D8F5E8F7F
S1131F006F8F78A3411551056105710509F485C1E9
S1131F102D8D022E04C0880C991CAA1CBB1C0A948B
S1131F20D2F7B701A601022E04C0440F551F661F45
S1131F30771F0A94D2F780E290E0AD8DBE8D8A1BA4
S1131F409B0BC98CDA8CEB8CFC8C04C0F694E79464
S1131F50D794C7948A95D2F7C42AD52AE62AF72AB1
S1131F60498D5A8D6B8D7C8D04C0440F551F661F9F
S1131F70771F2A95D2F7498F5A8F6B8F7C8F4DC16B
S1131F8081149104A104B10451F461E070E080E093
S1131F9090E0A50194010E94CC1449015A0100E08B
S1131FA0801600E0900601E0A00600E0B00658F4B8
S1131FB01FEF81169104A104B10409F090F480E0AC
S1131FC090E0DC0117C020E0821620E0920620E0B9
S1131FD0A20621E0B20650F480E190E0A0E0B0E077
S1131FE009C088E090E0A0E0B0E004C088E190E09F
S1131FF0A0E0B0E0B501A401082E04C07695679571
S1132000579547950A94D2F7FA01EB57FF4F208171
S1132010820F911DA11DB11D00E210E020E030E00F
S1132020081B190B2A0B3B0B0D8F1E8F2F8F38A308
S1132030011511052105310529F4C818D908EA0844
S1132040FB08EBC02D8D022E04C0880C991CAA1C21
S1132050BB1C0A94D2F7B701A601082E04C07695DA
S11320606795579547950A94D2F749A75AA76BA73E
S11320707CA7B701A601022E04C0440F551F661F9A
S1132080771F0A94D2F7C98CDA8CEB8CFC8C04C0D1
S1132090F694E794D794C7948A95D2F74C295D298E
S11320A06E297F2949A35AA36BA37CA3E98CFA8CDC
S11320B00B8D1C8D04C0EE0CFF1C001F111F2A95F4
S11320C0D2F7E98EFA8E0B8F1C8F250166247724B4
S11320D095018401207030700DA31EA32FA338A78F
S11320E069A57AA58BA59CA5A30192010E94CC1495
S11320F0022FC32E142FF52E6DA77EA78FA798ABA2
S113210069A57AA58BA59CA5A30192010E94CC1474
S1132110602F7C2D812F9F2D2DA13EA14FA158A56D
S11321200E94AD14DC01CB010DA51EA52FA538A975
S11321307801DD24CC2409A11AA12BA13CA1A90179
S113214066277727C42AD52AE62AF72AC816D90685
S1132150EA06FB0690F4C80CD91CEA1CFB1CC81444
S1132160D904EA04FB0448F0C816D906EA06FB06BB
S113217020F4C80CD91CEA1CFB1CC81AD90AEA0AA8
S1132180FB0AC701B601A30192010E94CC14122FCD
S1132190032F342E252E69A77AA78BA79CA7C701E6
S11321A0B601A30192010E94CC14612F702F832DDC
S11321B0922D2DA13EA14FA158A50E94AD14DC0182
S11321C0CB0109A51AA52BA53CA57801DD24CC24B7
S11321D049A15AA16BA17CA160707070C42AD52A50
S11321E0E62AF72AC816D906EA06FB0690F4C80CB4
S11321F0D91CEA1CFB1CC814D904EA04FB0448F0EB
S1132200C816D906EA06FB0620F4C80CD91CEA1C39
S1132210FB1CC81AD90AEA0AFB0A850122273327BC
S113222009A31AA32BA33CA3950184012070307049
S113223009A71AA72BA73CA7C701B60129A13AA150
S11322404BA15CA10E94CC14122F032F442E752E97
S11322506DA37EA38FA398A7C701B60129A13AA1B4
S11322604BA15CA10E94CC14612F702F842D972D5B
S113227029A53AA54BA55CA50E94AD14DC01CB01B0
S11322800DA11EA12FA138A57801DD24CC24098D30
S11322901A8D2B8D3C8DA90166277727C42AD52A50
S11322A0E62AF72AC816D906EA06FB0690F4C80CF3
S11322B0D91CEA1CFB1CC814D904EA04FB0448F02A
S11322C0C816D906EA06FB0620F4C80CD91CEA1C79
S11322D0FB1CC81AD90AEA0AFB0AC701B60129A1DC
S11322E03AA14BA15CA10E94CC14122F032F442EBF
S11322F0752E6DA37EA38FA398A7C701B60129A14C
S11323003AA14BA15CA10E94CC14612F702F842DA3
S1132310972D29A53AA54BA55CA50E94AD14AB0148
S1132320BC01CDA0DEA0EFA0F8A4D6019927882790
S1132330098D1A8D2B8D3C8D20703070802B912B44
S1132340A22BB32B84179507A607B70790F4880D23
S1132350991DAA1DBB1D88159905AA05BB0548F042
S113236084179507A607B70720F4880D991DAA1DA1
S1132370BB1D841B950BA60BB70B8C019D010D8C0B
S113238004C036952795179507950A94D2F70983C3
S11323901A832B833C831D821E821F821886202F62
S11323A03A814B815C8160E0D1C2C816D906EA0645
S11323B0FB0618F48F2F9E2FCCC2803000E09007CC
S11323C001E0A00700E0B00750F48F3F9105A1059C
S11323D0B10509F088F400E010E0980116C08030DF
S11323E010E0910710E0A10711E0B10750F400E1FB
S11323F010E020E030E009C008E010E020E030E028
S113240004C008E110E020E030E0AC01BD01002E82
S113241004C076956795579547950A94D2F7FA01C3
S1132420EB57FF4F4081040F111D211D311D40E268
S113243050E060E070E0401B510B620B730B09F03D
S113244040C08C159D05AE05BF0548F0098D1A8D59
S11324502B8D3C8D081519052A053B0520F1498D66
S11324605A8D6B8D7C8D481959096A097B09C81AE4
S1132470D90AEA0AFB0A81E090E0A0E0B0E0898C86
S11324809A8CAB8CBC8C84169506A606B70618F0FD
S113249080E090E0DC01C81AD90AEA0AFB0A498FF5
S11324A05A8F6B8F7C8F098D1A8D2B8D3C8D0983F0
S11324B01A832B833C83CD82DE82EF82F886298DBA
S11324C041C2342EAC01BD01032C04C0440F551F7E
S11324D0661F771F0A94D2F7202ED501C40104C0C9
S11324E0B695A795979587950A95D2F7482B592BBA
S11324F06A2B7B2B4D8F5E8F6F8F78A395018401A0
S1132500032C04C0000F111F221F331F0A94D2F79B
S113251009A71AA72BA73CA746015701022C04C000
S1132520B694A794979487940A94D2F78DA29EA206
S1132530AFA2B8A697018601032C04C0000F111F97
S1132540221F331F0A94D2F7898D9A8DAB8DBC8DCF
S1132550022C04C0B695A795979587950A94D2F74F
S1132560082B192B2A2B3B2B09A31AA32BA33CA31F
S1132570898C9A8CAB8CBC8C032C04C0880C991C61
S1132580AA1CBB1C0A94D2F7898E9A8EAB8EBC8E81
S11325904B01AA24BB24607070704DA75EA76FA77F
S11325A078AB6DA17EA18FA198A5A50194010E948D
S11325B0CC1429013A016B017C016DA17EA18FA18C
S11325C098A5A50194010E94CC14C301B2012DA5C4
S11325D03EA54FA558A90E94AD14DC01CB0176019C
S11325E0DD24CC2409A11AA12BA13CA1A9016627B1
S11325F07727C42AD52AE62AF72AC816D906EA066E
S1132600FB0678F5930182010150104020403040D0
S11326100DA31EA32FA338A70D8D1E8D2F8D38A1BA
S1132620C00ED11EE21EF31EC016D106E206F3064A
S1132630E0F0C816D906EA06FB06B8F49301820155
S113264002501040204030400DA31EA32FA338A7F2
S11326500D8D1E8D2F8D38A1C00ED11EE21EF31ECE
S113266004C04DA25EA26FA278A6C81AD90AEA0ACB
S1132670FB0AC701B601A50194010E94CC142901EB
S11326803A0169AB7AAB8BAB9CABC701B601A50130
S113269094010E94CC14C301B2012DA53EA54FA5FF
S11326A058A90E94AD148B019C0189A89AA8ABA8D3
S11326B0BCA8B4015527442789A19AA1ABA1BCA108
S11326C0A070B070482B592B6A2B7B2BD301C2010D
S11326D04017510762077307F0F40197A109B10984
S11326E0AD8CBE8CCF8CD8A04A0D5B1D6C1D7D1D9E
S11326F04A155B056C057D0570F0401751076207AC
S1132700730748F4D301C2010297A109B1094A0D24
S11327105B1D6C1D7D1D6A017B01C01AD10AE20A92
S1132720F30AC9A2DAA2EBA2FCA2EDA0FEA00FA1BB
S113273018A5B70155274427482B592B6A2B7B2B07
S1132740FFEFCF2EFFEFDF2EE12CF12CC422D52298
S1132750E622F7222B016624772489A49AA4ABA449
S1132760BCA40FEF1FEF20E030E080229122A222D0
S1132770B32229A53AA54BA55CA58A0122273327B4
S11327800DA31EA32FA338A7C701B601A501940169
S11327900E94AD146DA77EA78FA798ABC701B601A1
S11327A02DA13EA14FA158A50E94AD146B017C013F
S11327B0C301B201A50194010E94AD144B015C0157
S11327C0C301B2012DA13EA14FA158A50E94AD1491
S11327D0AB01BC01C80CD91CEA1CFB1C0DA51EA531
S11327E02FA538A9C901AA27BB27C80ED91EEA1EDE
S11327F0FB1EC814D904EA04FB0420F440505040E2
S11328006F4F7F4FC701AA27BB27840F951FA61FB1
S1132810B71F7601DD24CC244DA55EA56FA578A94C
S113282060707070C40ED51EE61EF71E89A09AA0B3
S1132830ABA0BCA088169906AA06BB0670F0881542
S11328409905AA05BB0599F5098D1A8D2B8D3C8D2B
S11328500C151D052E053F0550F5B701A60189A4E9
S11328609AA4ABA4BCA4481959096A097B098C0130
S11328709D018D8C9E8CAF8CB8A0081919092A096A
S11328803B0981E090E0A0E0B0E0C416D506E6067E
S1132890F70618F080E090E0DC0158016901A81AFD
S11328A0B90ACA0ADB0AD601C5016A017B01898C0F
S11328B09A8CAB8CBC8C8C189D08AE08BF0849A1BF
S11328C05AA16BA17CA1481B590B6A0B7B0B81E0BD
S11328D090E0A0E0B0E0C98CDA8CEB8CFC8CC814DE
S11328E0D904EA04FB0418F080E090E0DC01481B02
S11328F0590B6A0B7B0B8A019B0104C0000F111F4B
S1132900221F331F2A94D2F7032C04C0B694A79431
S1132910979487940A94D2F7082919292A293B29DC
S113292009831A832B833C836A017B0104C0F694D8
S1132930E794D794C7943A94D2F7CD82DE82EF829B
S1132940F886202F3A814B815C816C2D7E818F81AA
S11329509885E496E2E10C940A15629FD001739F76
S1132960F001829FE00DF11D649FE00DF11D929F27
S1132970F00D839FF00D749FF00D659FF00D992766
S1132980729FB00DE11DF91F639FB00DE11DF91F8A
S1132990BD01CF0111240895A1E21A2EAA1BBB1B6D
S11329A0FD010DC0AA1FBB1FEE1FFF1FA217B30717
S11329B0E407F50720F0A21BB30BE40BF50B661F2D
S11329C0771F881F991F1A9469F7609570958095F1
S11329D090959B01AC01BD01CF0108952F923F92C8
S11329E04F925F926F927F928F929F92AF92BF921B
S11329F0CF92DF92EF92FF920F931F93CF93DF93C7
S1132A00CDB7DEB7CA1BDB0B0FB6F894DEBF0FBE23
S1132A10CDBF09942A88398848885F846E847D8470
S1132A208C849B84AA84B984C884DF80EE80FD8072
S1132A300C811B81AA81B981CE0FD11D0FB6F894E8
S1112A40DEBF0FBECDBFED010895F894FFCFA9
S1132A4E3738392F3435362A3132332D41303D2B38
S1132A5E57656C636F6D65004572726F723A2044F0
S1132A6E6976203000000102020303030304040408
S1132A7E04040404040505050505050505050505F9
S1132A8E05050505050606060606060606060606D9
S1132A9E06060606060606060606060606060606C4
S1132AAE06060606060707070707070707070707A9
S1132ABE0707070707070707070707070707070794
S1132ACE0707070707070707070707070707070784
S1132ADE0707070707070707070707070707070774
S1132AEE0707070707080808080808080808080859
S1132AFE0808080808080808080808080808080844
S1132B0E0808080808080808080808080808080833
S1132B1E0808080808080808080808080808080823
S1132B2E0808080808080808080808080808080813
S1132B3E0808080808080808080808080808080803
S1132B4E08080808080808080808080808080808F3
S1132B5E08080808080808080808080808080808E3
S1092B6E08080808080035
S9030000FC
