S01B000050726F6A6563745F345F536D616C6C5F43616C2E73726563D8
S11300000C942A000C9447000C9447000C9447006D
S11300100C9447000C9447000C9447000C94470040
S11300200C9447000C9447000C9447000C94470030
S11300300C9447000C9447000C9447000C94470020
S11300400C9447000C9447000C9447000C94470010
S11300500C94470011241FBECFE5D8E0DEBFCDBF0E
S113006011E0A0E6B0E0E2EFF1E402C005900D92E9
S1130070A239B107D9F711E0A2E9B1E001C01D929C
S1130080A239B107E1F70E949E060C94F7200C9464
S11300900000CF93DF9300D0CDB7DEB789836A83A6
S11300A089816A8141E00E9428020F900F90DF91BC
S11300B0CF910895CF93DF9300D0CDB7DEB7898376
S11300C06A8389816A8141E00E94B9020F900F908E
S11300D0DF91CF910895CF93DF9300D0CDB7DEB7F2
S11300E089836A8389816A8140E00E94B9020F9002
S11300F00F90DF91CF910895CF93DF9300D0CDB7C8
S1130100DEB789836A8389816A810E94AF030F9075
S11301100F90DF91CF910895CF93DF9300D0CDB7A7
S1130120DEB789836A8389816A810E944A030F90BA
S11301300F90DF91CF9108952F923F924F925F924B
S11301406F927F928F929F92AF92BF92CF92DF92E3
S1130150EF92FF920F931F93CF93DF93CDB7DEB748
S11301602C970FB6F894DEBF0FBECDBF89839A8358
S11301706B87623008F486C022242394332433949A
S113018044245524662477248824992410E0232DBC
S1130190362E342D452D562D672D782D892D922CF4
S11301A0912F01E00E94660CE22EF32E142FD52E1F
S11301B0C62EB72EA82E292E832E742E5B83662E70
S11301C0572E482E02E00E94660C2E0DE1E02E15FB
S11301D008F0E0E0F30EF1E0F81408F0F0E03E2F50
S11301E03F0DE1E03F1508F0E0E0FE2B140FE1E0E5
S11301F0171508F0E0E04F2F410FF1E0411708F028
S1130200F0E0EF2BD50EF1E05B81D51608F0F0E0BD
S11302105E2F5D0DE1E05D1508F0E0E0FE2BC60EFB
S1130220E1E0C61408F0E0E06F2F6C0DF1E06C150E
S113023008F0F0E0EF2BB70EF1E0B51408F0F0E0B1
S11302407E2F7B0DE1E07B1508F0E0E0FE2BA80E8D
S1130250E1E0A41408F0E0E08F2F8A0DF1E08A15A4
S113026008F0F0E0EF2B920D9E0F9394931409F095
S113027098CF322E432E542E652E762E872E982E0E
S1130280192F09C033243394442455246624772435
S11302908824992410E08B85882309F4A6C09981C9
S11302A09887AA81A9871F82222419821A821B8215
S11302B01C821D821E821A861C87E885F98521917D
S11302C0F987E88730E040E050E060E070E080E0EB
S11302D090E0A32CB42CC52CD62CE72CF82C092D9B
S11302E01C850E94930B220DF1E0221508F0F0E02A
S11302F0A9813A0FE1E03A1708F0E0E0F30FA1E03A
S1130300F31708F0A0E0EA2BBA814B0F31E04B174A
S113031008F030E0E40FA1E0E41708F0A0E03A2B85
S11303204B81540F41E0AB815A1708F040E0350F80
S1130330A1E0351708F0A0E04A2B1C81160F61E0FC
S1130340BC811B1708F060E0542F510F41E0511796
S113035008F040E0642B4D81470F71E0AD814A17EE
S113036008F070E0640FA1E0641708F0A0E07A2BB5
S1130370BE818B0F41E08B1708F040E0780FA1E0BD
S1130380781708F0A0E04A2B8A85980F222EF9836B
S1130390EA833B835C836D837E83490F4A879F8115
S11303A09F5F9F83232D342D452D562D672D782D4A
S11303B0892D9C850F2EFAE0AF2EF02DBB24CC2482
S11303C0DD24EE24FF2400E010E00E94E00C322E35
S11303D0432E542E652E762E872E982E9C87AF8121
S11303E0BB85AB1709F069CF08C0222419821A8291
S11303F01B821C821D821E821A86222D39814A810B
S11304005B816C817D818E819A852C960FB6F894E0
S1130410DEBF0FBECDBFDF91CF911F910F91FF9033
S1130420EF90DF90CF90BF90AF909F908F907F9090
S11304306F905F904F903F902F900895442339F030
S1130440E82FF92F80E061938F5F8417E1F7089517
S1130450843409F471C0853448F4823499F18334C6
S113046008F04DC0813409F083C00FC0823651F1C9
S1130470833620F4813609F07BC007C0833609F443
S11304803EC0843609F074C057C0413069F42AB3C1
S113049081E090E0AC0102C0440F551F6A95E2F779
S11304A0BA01622B6ABB08952AB381E090E0AC01E3
S11304B002C0440F551F6A95E2F7BA0160956223A2
S11304C06ABB0895413069F427B381E090E0AC0140
S11304D002C0440F551F6A95E2F7BA01622B67BB4D
S11304E0089527B381E090E0AC0102C0440F551F8A
S11304F06A95E2F7BA016095622367BB08954130BB
S113050069F424B381E090E0AC0102C0440F551FAC
S11305106A95E2F7BA01622B64BB089524B381E0C3
S113052090E0AC0102C0440F551F6A95E2F7BA018E
S11305306095622364BB0895413069F421B381E07E
S113054090E0AC0102C0440F551F6A95E2F7BA016E
S1130550622B61BB089521B381E090E0AC0102C03D
S1130560440F551F6A95E2F7BA016095622361BB97
S11305700895843409F471C0853448F4823499F1BF
S1130580833408F04DC0813409F083C00FC0823633
S113059051F1833620F4813609F07BC007C08336DD
S11305A009F43EC0843609F074C057C0413069F480
S11305B02BB381E090E0AC0102C0440F551F6A9553
S11305C0E2F7BA01622B6BBB08952BB381E090E094
S11305D0AC0102C0440F551F6A95E2F7BA01609559
S11305E062236BBB0895413069F428B381E090E045
S11305F0AC0102C0440F551F6A95E2F7BA01622BA1
S113060068BB089528B381E090E0AC0102C0440FB8
S1130610551F6A95E2F7BA016095622368BB089595
S1130620413069F425B381E090E0AC0102C0440F8D
S1130630551F6A95E2F7BA01622B65BB089525B38D
S113064081E090E0AC0102C0440F551F6A95E2F7C7
S1130650BA016095622365BB0895413069F422B301
S113066081E090E0AC0102C0440F551F6A95E2F7A7
S1130670BA01622B62BB089522B381E090E0AC0121
S113068002C0440F551F6A95E2F7BA0160956223D0
S113069062BB0895843409F44EC0853440F4823436
S11306A031F18334B0F5813409F057C00EC082367D
S11306B0F1F0833620F4813609F04FC006C083364A
S11306C041F1843609F049C036C029B381E090E095
S11306D0062E02C0880F991F0A94E2F730E08223A5
S11306E0932302C0959587956A95E2F7089526B3FA
S11306F081E090E0062E02C0880F991F0A94E2F769
S113070030E08223932302C0959587956A95E2F79A
S1130710089523B381E090E0062E02C0880F991F4C
S11307200A94E2F730E08223932302C095958795DB
S11307306A95E2F7089520B381E090E0062E02C0A6
S1130740880F991F0A94E2F730E08223932302C0B2
S1130750959587956A95E2F7089580E00895843425
S113076009F43DC0853440F48234F9F0833450F503
S1130770813409F040C00CC08236B9F0833618F4D5
S11307808136C9F505C08336E9F08436A1F527C062
S11307902BB381E090E0AC0102C0440F551F6A9571
S11307A0E2F7BA0162276BBB089528B381E090E0B9
S11307B0AC0102C0440F551F6A95E2F7BA016227E3
S11307C068BB089525B381E090E0AC0102C0440FFA
S11307D0551F6A95E2F7BA01622765BB089522B3F3
S11307E081E090E0AC0102C0440F551F6A95E2F726
S11307F0BA01622762BB08958434D9F0853438F491
S1130800823499F0833498F48134A1F40CC0823694
S113081061F0833618F4813669F405C0833639F003
S1130820843641F406C06ABB089567BB089564BB6F
S1130830089561BB08958434D9F0853438F4823442
S113084099F0833498F48134A1F40CC0823661F0B9
S1130850833618F4813669F405C0833639F084365A
S113086041F406C06BBB089568BB089565BB089549
S113087062BB08958434D9F0853438F4823499F015
S1130880833498F48134A9F40CC0823661F0833641
S113089018F4813671F405C0833639F0843649F48E
S11308A006C089B3089586B3089583B3089580B3C9
S11308B0089580E00895843409F1853438F482344D
S11308C0A9F08334B8F48134E1F40CC0823671F0B9
S11308D0833618F48136A9F405C0833659F084367A
S11308E081F40CC08BB380958BBB089588B380953D
S11308F088BB089585B3809585BB089582B38095A0
S113090082BB0895843409F471C0853448F4823478
S113091099F1833408F04DC0813409F083C00FC0CD
S1130920823651F1833620F4813609F07BC007C04A
S1130930833609F43EC0843609F074C057C0413090
S113094069F42BB381E090E0AC0102C0440F551F61
S11309506A95E2F7BA01622B6BBB08952BB381E071
S113096090E0AC0102C0440F551F6A95E2F7BA014A
S1130970609562236BBB0895413069F428B381E02C
S113098090E0AC0102C0440F551F6A95E2F7BA012A
S1130990622B68BB089528B381E090E0AC0102C0EB
S11309A0440F551F6A95E2F7BA016095622368BB4C
S11309B00895413069F425B381E090E0AC0102C0B0
S11309C0440F551F6A95E2F7BA01622B65BB08957F
S11309D025B381E090E0AC0102C0440F551F6A9535
S11309E0E2F7BA016095622365BB0895413069F46A
S11309F022B381E090E0AC0102C0440F551F6A9518
S1130A00E2F7BA01622B62BB089522B381E090E061
S1130A10AC0102C0440F551F6A95E2F7BA01609514
S1130A20622362BB0895CF92DF92EF92FF920F93FD
S1130A301F93CF93DF93082F162F653028F5862F49
S1130A408C5F681708F5C0E0D0E0EE24FF24E3943F
S1130A50C42EDD246C2F610FC7010C2E02C0880F39
S1130A60991F0A94E2F78C219D219C010C2E02C04F
S1130A70359527950A94E2F7A901802F0E94B902BF
S1130A802196C430D10531F7DF91CF911F910F9199
S1130A90FF90EF90DF90CF90089584E660E041E00E
S1130AA00E94280284E661E041E00E94280284E674
S1130AB062E041E00E94280284E663E041E00E9493
S1130AC0280284E664E040E00E94280284E665E0AF
S1130AD040E00E94280284E666E040E00E9428028A
S1130AE084E667E040E00E94280284E664E041E096
S1130AF00E94820484E665E041E00E94820484E668
S1130B0066E041E00E94820484E667E041E00E94DE
S1130B10820408950F931F93CF93DF93CDB7DEB76D
S1130B2060970FB6F894DEBF0FBECDBFDE011196FD
S1130B30E0E6F0E080E101900D928150E1F700E001
S1130B4084E660E04FE00E94130584E6602F40E0F5
S1130B500E94B90210E0612F6C5F84E60E944A0390
S1130B60882361F4E02FF0E0EE0FFF1FEE0FFF1F6C
S1130B70E10FF11DEC0FFD1F818104C01F5F1430D4
S1130B8051F70BC060960FB6F894DEBF0FBECDBF11
S1130B90DF91CF911F910F9108950F5F043081F67B
S1130BA08FEFF0CF82E461E041E00E94B90287E870
S1130BB093E10197F1F700C0000082E461E040E0B6
S1130BC00E94B90287E893E10197F1F700C00000A1
S1130BD00895CF93C82F82E462E040E00E94B902F6
S1130BE082E460E041E00E94B9024C2F42954F70CC
S1130BF081E464E00E9413050E94D20581E464E06C
S1130C004C2F0E9413050E94D205CF910895CF93D3
S1130C10C82F82E462E040E00E94B90282E460E00E
S1130C2040E00E94B9024C2F42954F7081E464E089
S1130C300E9413050E94D20581E464E04C2F0E94B7
S1130C4013050E94D2058FE99FE00197F1F700C0D8
S1130C500000CF910895CF93DF93EC01888188231E
S1130C6031F021960E94E90589918823D9F7DF9113
S1130C70CF910895982F9150923080F4662389F093
S1130C80613190F4813029F4862F90E081589F4F90
S1130C900DC0862F90E081549F4F08C080E890E0FB
S1130CA005C080E890E002C080E890E00E9407065A
S1130CB0089581E00E9407068FE19EE40197F1F711
S1130CC000C00000089582E00E9407068FE19EE4C0
S1130CD00197F1F700C000000895CF938FE79AE1E0
S1130CE0A6E081509040A040E1F700C00000C4E0BD
S1130CF081E46C2F41E00E942802CF5FC830C1F725
S1130D0082E462E041E00E94280282E460E041E083
S1130D100E94280282E461E041E00E9428020E94CD
S1130D20630688E20E9407068EE00E9407060E947E
S1130D30590686E00E940706CF910895CF93DF936A
S1130D40CDB7DEB7E2970FB6F894DEBF0FBECDBFC6
S1130D500E946D060E944D0582E664E00E944900EF
S1130D6019821A821B821C821D821E821F8218868F
S1130D70FE01719680E1DF011D928A95E9F780E713
S1130D8090E00E942B0682E664E00E945A008FEFF6
S1130D9094E3ACE081509040A040E1F700C0000033
S1130DA00E94590682E664E00E946B001FA61FA2FF
S1130DB018A619A61AA61BA61CA61EA61DA61AA22C
S1130DC01BA21CA21DA21EA222243324552418AA4D
S1130DD091E099AB77249924882419A266244424A9
S1130DE0439403C09924689491F882E664E00E94D5
S1130DF06B000E948A058F3FE1F3182F8FEF94E375
S1130E00ACE081509040A040E1F700C000001134F4
S1130E1029F091E0591611F0882001F50E94590635
S1130E20CE01419660E040E10E941E021FA61FA26F
S1130E3018A619A61AA61BA61CA61EA61DA61AA2AB
S1130E401BA21CA21DA21EA222243324552418AACC
S1130E5049AA77249924882419A26624012F0053CF
S1130E600A3020F5812F0E94E905992069F4772042
S1130E7009F051C1E1E1F0E0EC0FFD1FE60DF11DB9
S1130E8000836394842C4AC1772009F024C1A2E032
S1130E909A1609F022C1E1E1F0E0EC0FFD1FE60D26
S1130EA0F11D0083639419AA842C38C11A3249F4C1
S1130EB0B1E08B1689F48AE20E94E905FAE2F9A30B
S1130EC02FC41F3249F421E0821689F48FE20E9474
S1130ED0E9053FE239A324C41D3249F481E08816B0
S1130EE091F48DE20E94E9059DE299A319C41B3295
S1130EF051F4A1E08A1609F0F1C08BE20E94E905E1
S1130F00BBE2B9A30DC41D3309F0E8C0F1E08F16AC
S1130F1009F0E4C029A9213009F0D6C038A931303C
S1130F2091F40E94590688E790E00E942B068FEF07
S1130F3099E6A8E181509040A040E1F700C000008C
S1130F40542C8824CBC098A9992309F0BDC08DE303
S1130F500E94E905CE014196662D0E949C00F22E66
S1130F60032F142FE52ED62EC72EB82EA92E2DA76B
S1130F703AA34BA35CA36DA37EA3282E392E822F04
S1130F80802B812B8E298D298C298B298A2971F418
S1130F9082E060E10E943A0680E30E94E905542C55
S1130FA09924689491F888246624B8C082E060E1AA
S1130FB00E943A0684E00E940706F9860A871B8786
S1130FC0EC86DD86CE86BF86A88A79856A855B85B0
S1130FD04C853D852E859F858889672B652B642BE1
S1130FE0632B622B692B682B09F464C06624639419
S1130FF029853A854B855C856D857E858F859889A5
S11310000F2EFAE0AF2EF02DBB24CC24DD24EE24E9
S1131010FF2400E010E00E949C1429873A874B8744
S11310205C876D877E878F87988B79856A855B85DA
S11310304C853D852E859F858889672B652B642B80
S1131040632B622B692B682B91F6862C662099F111
S113105099245EA02DA53AA14BA15CA16DA1752D8B
S1131060822D932D0F2EFAE0AF2EF02DBB24CC242D
S1131070DD24EE24FF2400E010E00E94E11A822F18
S1131080805D0E94E9052DA53AA14BA15CA16DA14B
S1131090752D822D932D0E949C142DA73AA34BA34A
S11310A05CA36DA3572E282E392E9394981491F691
S11310B07EA301C0662486E00E940706542C99246E
S11310C0689491F888242AC0812F0E94E905542C41
S11310D0742C882403C0842C01C0842CA1E09A16AB
S11310E0E9F47720D1F4CE014196662D0E949C004C
S11310F02DA73AA34BA35CA36DA37EA3282E392E60
S1131100CE01419660E040E10E941E029924689459
S113111091F8662420C0842C01C0942CB1E07B1685
S1131120B1F4F2E09F1609F060CECE014196662D2F
S11311300E949C002FA73FA348A759A76AA77BA793
S11311408CA79EA77724689471F8662408C022E0CF
S1131150921609F04ACE32E0731609F043CE89A103
S11311608B3209F479C18C3220F48A3209F0DAC165
S113117008C099A19D3209F45EC09F3209F0D2C122
S11311801BC02FA53FA148A559A56AA57BA58CA581
S11311909EA5ADA4BAA0CBA0DCA0EDA0FEA0022D1C
S11311A0132D0E94930B29833A834B835C836D83B5
S11311B07E838F839887B6C18FA5AFA18A2BB8A5EC
S11311C08B2BF9A58F2B2AA5822B3BA5832B9CA5C2
S11311D0892BAEA58A2BA1F40E94590685E890E0DC
S11311E00E942B0682E664E00E945A008FEF99E683
S11311F0A8E181509040A040E1F700C0000092C1F6
S11312002DA53AA14BA15CA16DA17EA1822D932DA8
S1131210AFA4BFA0C8A4D9A4EAA4FBA40CA51EA58E
S11312200E949C1429833A834B835C836D837E8361
S11312308F83988777C19EA5391608F49FC09315AC
S113124071F5ACA52A1608F499C0A21541F5BBA501
S1131250FEA1FB1708F492C0BF1709F52AA53DA10A
S1131260321708F48BC02317D1F489A59CA19817D1
S113127008F484C0891799F4A8A5BBA1BA1708F487
S11312807DC0AB1761F4FFA12AA12F1708F476C023
S1131290F21729F43FA58DA5831708F46FC0EDA5B7
S11312A09FA5E91B942DADA5AE1708F090E08AA187
S11312B0BFA18B1B242DFAA1F81708F020E0782F8A
S11312C0791B942D871708F090E0292B8BA138A562
S11312D0831B942DABA1A81708F090E0682F621B24
S11312E0242D861708F020E0922B8CA1B9A58B1B26
S11312F0242DFCA1F81708F020E0582F591B942D39
S1131300851708F090E0292B8DA13AA5831B942D15
S1131310ADA1A81708F090E0482F421B242D841794
S113132008F020E0922B8EA1BBA58B1B242DFEA1DF
S1131330F81708F020E0382F391B942D831708F094
S113134090E0292B922D8CA5981B842D291608F04A
S113135080E0A92FA21B2A2FF42D9A1708F0F0E0A1
S11313608F2B932DBEA59B1B981BE9837A836B83DC
S11313705C834D833E832F839887D4C0EFA5FDA55E
S1131380EF1B942D2FA52E1708F090E08FA13AA102
S1131390831B242DAFA1A81708F020E0782F791B18
S11313A0942D871708F090E0292B88A5BBA18B1BEF
S11313B0942DF8A5F81708F090E0682F621B242DEF
S11313C0861708F020E0922B89A52CA1821B242DDE
S11313D039A5381708F020E0582F591B942D85178C
S11313E008F090E0292B8AA59DA1891B942DAAA51C
S11313F0A81708F090E0482F421B242D841708F00A
S113140020E0922B8BA5BEA18B1B242DFBA5F817E6
S113141008F020E0382F391B942D831708F090E052
S1131420292B9CA59219842DACA5A91708F080E05E
S1131430B92FB21B2B2FF42D9B1708F0F0E08F2B44
S11314409EA59319981BE9837A836B835C834D83F0
S11314503E832F83988766C0EFA5FDA5EF0F742DFB
S11314602FA5E21708F070E08FA13AA1830F642D35
S11314709FA1891708F060E0780F942D781708F081
S113148090E0692B88A5ABA18A0F542DB8A58B17C2
S113149008F050E0680F942D681708F090E0592B7D
S11314A089A5FCA18F0F442D29A5821708F040E0DF
S11314B0580F942D581708F090E0492B8AA53DA1A8
S11314C0830F342D9AA5891708F030E0480F942D26
S11314D0481708F090E0392B8BA5AEA18A0F242D74
S11314E0BBA58B1708F020E0380F942D381708F0AF
S11314F090E0292B9CA5920D842DFCA59F1708F044
S113150080E0290FF42D291708F0F0E08F2B9EA519
S1131510930D890FE9837A836B835C834D833E83C8
S11315202F83888779816A815B814C813D812E81FB
S11315309F818885672B652B642B632B622B692B1A
S1131540682BE9F48FA52FA1822B38A5832B99A5AD
S1131550892BAAA58A2BBBA58B2BFCA58F2B2EA58B
S1131560822B09F442CC39A13F3209F43ECC82E00B
S113157060E10E943A0680E30E94E90536CC798155
S11315806A815B814C813D812E819F818885672B97
S1131590652B642B632B622B692B682B09F425CCF8
S11315A082E060E10E943A0684E00E9407067981A5
S11315B06A815B814C813D812E819F8188857987F9
S11315C06A875B874C873D872E879F87888B7985C1
S11315D06A855B854C853D852E859F858889672B2B
S11315E0652B642B632B622B692B682B71F163943D
S11315F029853A854B855C856D857E858F8598899F
S11316000F2EFAE0AF2EF02DBB24CC24DD24EE24E3
S1131610FF2400E010E00E949C1429873A874B873E
S11316205C876D877E878F87988B79856A855B85D4
S11316304C853D852E859F858889672B652B642B7A
S1131640632B622B692B682B91F66620A1F110E0C5
S11316508AAA892C912E29813A814B815C816D81E2
S11316607E818F8198850F2EFAE0AF2EF02DBB245A
S1131670CC24DD24EE24FF2400E010E00E94E11AD3
S1131680822F805D0E94E90529813A814B815C812A
S11316906D817E818F8198850E949C1429833A8371
S11316A04B835C836D837E838F8398879394961496
S11316B091F6982C8AA88EA5381648F1831561F501
S11316C09CA5291620F1921539F5ABA5BEA1BA1730
S11316D0F0F0AB1709F5FAA52DA12F17C0F0F217FA
S11316E0D9F439A58CA1831790F03817A9F498A5DB
S11316F0ABA1A91760F09A1779F4BFA1FAA1FB175F
S113170030F0BF1749F42FA53DA5321728F489A15D
S11317108D3211F40E94E90586E00E94070665CB2C
S113172048AA842CDECCA0E3B0E0E9E9FBE00C9409
S1131730C220298F3A8F4B8F5C8F6D8F7E8F8F8F56
S113174098A3A98ABA8ACB8ADC8AED8AFE8A0F8B8F
S1131750188F098D1A8D2B8D3C8D09A31AA32BA3E9
S11317603CA3680179018FEF9FEFA0E0B0E0C822AD
S1131770D922EA22FB2289012227332709A71AA7A3
S11317802BA73CA709891A892B893C890DA31EA381
S11317902FA338A74801590188229922AA22BB22E3
S11317A0290166247724C501B401A70196010E948A
S11317B07F206DA77EA78FA798ABC301B2010E94BB
S11317C07F206B017C01C501B40129A53AA54BA575
S11317D05CA50E947F204B015C01C301B2010E9401
S11317E07F20AB01BC01C80CD91CEA1CFB1C0DA555
S11317F01EA52FA538A9C901AA27BB27C80ED91E23
S1131800EA1EFB1EC814D904EA04FB0420F4405069
S113181050406F4F7F4FC701AA27BB27840F951FE6
S1131820A61FB71F8D839E83AF83B8877601DD24FF
S1131830CC244DA55EA56FA578A960707070C40E08
S1131840D51EE61EF71EC982DA82EB82FC821C2DAD
S11318500A818B804C808D878E818E878F818F87C4
S11318608885888B2D893E894F89588D69A17AA1F5
S11318708BA19CA10E947F206B017C012D8D3E8D4C
S11318804F8D58A16DA17EA18FA198A50E947F20A4
S1131890DC01CB01C80ED91EEA1EFB1E8D859E8578
S11318A0AF85B8898C0D9D1DAE1DBF1D8D879E878C
S11318B0AF87B88B682F7E85212F302F482D542D6C
S11318C08F859889E096E0E10C94DE20CF92DF9238
S11318D0EF92FF920F93CF93DF93CDB7DEB760976C
S11318E00FB6F894DEBF0FBECDBF002309F45AC073
S11318F029873A874B875C876D877E878F87988B8C
S113190080E2801B49855A856B857C851816B4F066
S113191019821A821B821C82992787FD90959095C3
S113192081959F4F04C0440F551F661F771F8A95EA
S1131930D2F74D835E836F8378872CC06A017B0165
S1131940002E04C0CC0CDD1CEE1CFF1C0A94D2F744
S1131950C982DA82EB82FC826A017B0104C0F694BC
S1131960E794D794C7948A95D2F7D701C6014D85D9
S11319705E856F85788904C0440F551F661F771FE5
S11319800A95D2F7842B952BA62BB72B8D839E8398
S1131990AF83B88729813A814B815C816D817E81D7
S11319A08F81988560960FB6F894DEBF0FBECDBFC9
S11319B0DF91CF910F91FF90EF90DF90CF9008953A
S11319C0A8E4B0E0E6EEFCE00C94C120F50129A304
S11319D03AA34BA35CA36DA37EA38FA398A7A98E60
S11319E0FA8FCB8EDC8EED8EFE8E0F8F18A38DA01A
S11319F09EA0AFA0B8A4B7FE67C02195B1E01216AF
S1131A0008F0B0E03195A1E0131608F0A0E0B32E81
S1131A10BB1ABB2D882483943B1508F08824A8297D
S1131A20419531E0141608F030E0B42EBA1AAB2D0B
S1131A30882483944B1508F088243829519541E073
S1131A40151608F040E0452E431A31E0541508F00D
S1131A5030E0432B619531E0161608F030E0862E15
S1131A60841A41E0681508F040E0342B719541E098
S1131A70171608F040E0572F531B31E0751708F094
S1131A8030E0432B819531E0181608F030E0682FE0
S1131A90641B462F61E0841708F060E0362B9195B3
S1131AA0931B29A3BAA3ABA34CA28DA25EA34FA3FD
S1131AB098A78FEF9FEFAFEFBFEF25968CAF9DAF49
S1131AC0AEAFBFAF259706C025961CAE1DAE1EAEA9
S1131AD01FAE25978D8D9E8DAF8DB8A1B7FF68C0C1
S1131AE025962CAD3DAD4EAD5FAD25972095309537
S1131AF04095509525962CAF3DAF4EAF5FAF2597DF
S1131B00E19581E01E1608F080E0F19591E01F1642
S1131B1008F090E04F2F481B81E0F41708F080E0B4
S1131B20982BC19481E01C1408F080E06C2D691B93
S1131B3091E0C61608F090E0892BD19491E01D1431
S1131B4008F090E05D2D581B81E0D51608F080E088
S1131B50982BE19481E01E1408F080E03E2D391B9F
S1131B6091E0E31608F090E0892BF19491E01F14C2
S1131B7008F090E02F2D281B81E0F21608F080E099
S1131B80982B019581E0101608F080E0702F791BE6
S1131B90972F71E0091708F070E0872B1195181B37
S1131BA0E98F4A8F6B8F5C8F3D8F2E8F9F8F18A389
S1131BB0798D6A8D5B8D4C8D3D8D2E8D9F8D88A189
S1131BC0E9A1E98BEAA1EA8BEBA1EB8BECA1EC8B0D
S1131BD0EDA1ED8BEEA1EE8BEFA1EF8BE8A5E88FE5
S1131BE079876A875B874C873D872E879F87888B99
S1131BF089849A84AB84BC848D859E85AF85B8899D
S1131C00E988FA880B891C89EDAAFEAA0FAB18AFE4
S1131C10CD88DE88EF88F88C0097A105B10509F01E
S1131C20BDC3C814D904EA04FB0408F04DC100E0A4
S1131C30801600E0900601E0A00600E0B00658F42B
S1131C401FEF81169104A104B10409F090F480E01F
S1131C5090E0DC0117C020E0821620E0920620E02C
S1131C60A20621E0B20650F480E190E0A0E0B0E0EA
S1131C7009C088E090E0A0E0B0E004C088E190E012
S1131C80A0E0B0E0B501A401082E04C076956795E4
S1131C90579547950A94D2F7FA01EE56FF4F2081E3
S1131CA040E250E060E070E0481B590B6A0B7B0B8C
S1131CB0421B5109610971094115510561057105FD
S1131CC0A1F1042E04C0880C991CAA1CBB1C0A9404
S1131CD0D2F797018601042E04C0000F111F221FA2
S1131CE0331F0A94D2F780E290E0841B950BCDA8B1
S1131CF0DEA8EFA8F8AC04C0F694E794D794C79490
S1131D008A95D2F7C02AD12AE22AF32A0DA91EA95C
S1131D102FA938AD04C0000F111F221F331F4A958D
S1131D20D2F70DAB1EAB2FAB38AF25016624772459
S1131D30950184012070307009AB1AAB2BAB3CAB1E
S1131D40C701B601A30192010E949E202DA73EA7C0
S1131D504FA758AB69A77AA78BA79CA7C701B60161
S1131D60A30192010E949E20CA01B90129A93AA99E
S1131D704BA95CA90E947F20AB01BC0109A51AA54F
S1131D802BA53CA57801DD24CC240DA91EA92FA9DF
S1131D9038ADC901AA27BB27C82AD92AEA2AFB2AAF
S1131DA00DA51EA52FA538A9C416D506E606F70667
S1131DB038F5015010402040304009A71AA72BA73E
S1131DC03CA7C80CD91CEA1CFB1CC814D904EA049F
S1131DD0FB04D0F0C416D506E606F706A8F40DA554
S1131DE01EA52FA538A9025010402040304009A755
S1131DF01AA72BA73CA7C80CD91CEA1CFB1C04C0BF
S1131E0009A71AA72BA73CA7C41AD50AE60AF70AFA
S1131E10C701B601A30192010E949E202DA73EA7EF
S1131E204FA758AB69AF7AAF8BAF9CAFC701B60170
S1131E30A30192010E949E20CA01B90129A93AA9CD
S1131E404BA95CA90E947F206B017C0149AD5AAD6E
S1131E506BAD7CAD9A01112700274DA95EA96FA92E
S1131E6078AD60707070042B152B262B372B8DA545
S1131E709EA5AFA5B8A90C151D052E053F05C0F4F8
S1131E800197A109B109080D191D2A1D3B1D08154B
S1131E9019052A053B0560F00C151D052E053F05A7
S1131EA038F48DA59EA5AFA5B8A90297A109B109DB
S1131EB009A51AA52BA53CA57801DD24CC24C82AA4
S1131EC0D92AEA2AFB2AB7C481149104A104B104D3
S1131ED051F461E070E080E090E0A50194010E947B
S1131EE09E2049015A0110E0811610E0910611E08C
S1131EF0A10610E0B10658F42FEF82169104A10454
S1131F00B10409F090F480E090E0DC0117C030E007
S1131F10831630E0930630E0A30631E0B30650F4B4
S1131F2080E190E0A0E0B0E009C088E090E0A0E0AB
S1131F30B0E004C088E190E0A0E0B0E0B501A40105
S1131F40082E04C076956795579547950A94D2F75D
S1131F50FA01EE56FF4F2081AC01BD01420F511D25
S1131F60611D711D80E290E0A0E0B0E0841B950B40
S1131F70A60BB70B51F4C818D908EA08FB08F1E01E
S1131F804F2E512C612C712C28C1082E04C0880CB2
S1131F90991CAA1CBB1C0A94D2F797018601042E33
S1131FA004C036952795179507950A94D2F709AB7F
S1131FB01AAB2BAB3CAB97018601082E04C0000F73
S1131FC0111F221F331F0A94D2F70DA71EA72FA794
S1131FD038ABEDA8FEA80FA918AD04C01695079557
S1131FE0F794E7944A95D2F7B801A7010DA51EA569
S1131FF02FA538A9042B152B262B372B0DA71EA78D
S11320002FA738ABEDA8FEA80FA918AD04C0EE0C9D
S1132010FF1C001F111F8A95D2F7EDAAFEAA0FAB71
S113202018AF25016624772495018401207030704F
S113203009AF1AAF2BAF3CAF69A97AA98BA99CA9A8
S1132040A30192010E949E2029A73AA74BA75CA74F
S11320506B017C0169A97AA98BA99CA9A3019201AE
S11320600E949E20CA01B90129AD3AAD4BAD5CADC9
S11320700E947F20AB01BC017601DD24CC240DA598
S11320801EA52FA538A9C901AA27BB27C82AD92A62
S1132090EA2AFB2A09A51AA52BA53CA5C416D50630
S11320A0E606F70638F5015010402040304009ABF1
S11320B01AAB2BAB3CABC80CD91CEA1CFB1CC814D8
S11320C0D904EA04FB04D0F0C416D506E606F706E4
S11320D0A8F409A51AA52BA53CA502501040204040
S11320E0304009AB1AAB2BAB3CABC80CD91CEA1C77
S11320F0FB1C04C009AB1AAB2BAB3CABC41AD50A0E
S1132100E60AF70AC701B601A30192010E949E20C4
S113211029A73AA74BA75CA721966CAF7DAF8EAFDA
S11321209FAF2197C701B601A30192010E949E208F
S1132130CA01B90129AD3AAD4BAD5CAD0E947F2017
S11321408B019C0121964CAD5DAD6EAD7FAD2197A9
S1132150DA01992788274DA55EA56FA578A9607037
S11321607070842B952BA62BB72B49A55AA56BA56C
S11321707CA580179107A207B307F0F441505040A3
S113218060407040880D991DAA1DBB1D88159905D6
S1132190AA05BB0588F080179107A207B30760F46E
S11321A049A55AA56BA57CA542505040604070409B
S11321B0880D991DAA1DBB1D6C017D01C01AD10A91
S11321C0E20AF30A09A91AA92BA93CA93801552442
S11321D04424442A552A662A772A8501222733274C
S11321E00DA71EA72FA738AB95018401207030706E
S11321F009AF1AAF2BAF3CAFC701B6012DA53EA561
S11322004FA558A90E949E2029A73AA74BA75CA7CF
S113221069AB7AAB8BAB9CABC701B6012DA53EA5D0
S11322204FA558A90E949E20CA01B90129AD3AAD13
S11322304BAD5CAD0E947F20AB01BC0109A91AA97A
S11322402BA93CA97801DD24CC240DA91EA92FA912
S113225038ADC901AA27BB27C82AD92AEA2AFB2AEA
S113226009A51AA52BA53CA5C416D506E606F706AE
S113227038F5015010402040304009AB1AAB2BAB6D
S11322803CABC80CD91CEA1CFB1CC814D904EA04D6
S1132290FB04D0F0C416D506E606F706A8F409A593
S11322A01AA52BA53CA5025010402040304009AB94
S11322B01AAB2BAB3CABC80CD91CEA1CFB1C04C0EE
S11322C009AB1AAB2BAB3CABC41AD50AE60AF70A26
S11322D0C701B6012DA53EA54FA558A90E949E2071
S11322E029A73AA74BA75CA721966CAF7DAF8EAF09
S11322F09FAF2197C701B6012DA53EA54FA558A9AB
S11323000E949E20CA01B90129AD3AAD4BAD5CAD26
S11323100E947F208B019C0121964CAD5DAD6EAD7A
S11323207FAD2197DA01992788274DA95EA96FA966
S113233078AD60707070842B952BA62BB72B49A5B4
S11323405AA56BA57CA580179107A207B307D0F403
S11323504150504060407040880D991DAA1DBB1D1E
S113236088159905AA05BB0568F080179107A2078F
S1132370B30740F449A55AA56BA57CA5425050402B
S11323806040704009A91AA92BA93CA97801DD2451
S1132390CC24C42AD52AE62AF72A50C2C816D9065C
S11323A0EA06FB0608F437C2803010E0910711E01A
S11323B0A10710E0B10750F48F3F9105A105B105C5
S11323C009F088F400E010E0980116C0803020E0A5
S11323D0920720E0A20721E0B20750F400E110E0E8
S11323E020E030E009C008E010E020E030E004C064
S11323F008E110E020E030E0AC01BD01002E04C093
S113240076956795579547950A94D2F7FA01EE5653
S1132410FF4F4081040F111D211D311D40E250E08A
S113242060E070E0401B510B620B730BA1F48C1540
S11324309D05AE05BF0508F4F5C1EDA8FEA80FA9DA
S113244018AD442455243201E814F9040A051B0587
S113245008F0EBC1E3C1342E2C013D0104C0440C4F
S1132460551C661C771C4A95D2F7D501C401002E71
S113247004C0B695A795979587950A94D2F7482AEC
S1132480592A6A2A7B2AA5019401032C04C0220F2D
S1132490331F441F551F0A94D2F729AF3AAF4BAFED
S11324A05CAFB701A601002E04C0769567955795D9
S11324B047950A94D2F749AB5AAB6BAB7CABC701D7
S11324C0B601032C04C0660F771F881F991F0A9456
S11324D0D2F76DA77EA78FA798AB8DA99EA9AFA9A8
S11324E0B8AD04C0B695A795979587950A95D2F788
S11324F04DA55EA56FA578A9482B592B6A2B7B2B7C
S11325004DA75EA76FA778AB4301AA24BB24930110
S113251082012070307021960CAF1DAF2EAF3FAFFB
S1132520219769A97AA98BA99CA9A50194010E9464
S11325309E2029A73AA74BA75CA76B017C0169A938
S11325407AA98BA99CA9A50194010E949E20CA0185
S1132550B90121962CAD3DAD4EAD5FAD21970E94E2
S11325607F20DC01CB017601DD24CC240DA51EA542
S11325702FA538A9A90166277727C42AD52AE62AD0
S1132580F72A09A51AA52BA53CA5C816D906EA065B
S1132590FB0638F5015010402040304009AB1AAB1F
S11325A02BAB3CABC40CD51CE61CF71CC414D504E3
S11325B0E604F704D0F0C816D906EA06FB06A8F428
S11325C009A51AA52BA53CA5025010402040304077
S11325D009AB1AAB2BAB3CABC40CD51CE61CF71CEB
S11325E004C009AB1AAB2BAB3CABC81AD90AEA0A34
S11325F0FB0AC701B601A50194010E949E2029A7E8
S11326003AA74BA75CA729966CAF7DAF8EAF9FAF5F
S11326102997C701B601A50194010E949E20CA0111
S1132620B90121962CAD3DAD4EAD5FAD21970E9411
S11326307F204B015C0129964CAD5DAD6EAD7FAD45
S113264029979A01112700278DA59EA5AFA5B8A9A2
S1132650A070B070082B192B2A2B3B2B89A59AA5A7
S1132660ABA5BCA5081519052A053B05E0F401979F
S1132670A109B109040D151D261D371D04151505E5
S11326802605370580F0081519052A053B0558F479
S113269089A59AA5ABA5BCA50297A109B109040D0A
S11326A0151D261D371DB901A801481959096A09C4
S11326B07B094DA75EA76FA778AB09A91AA92BA917
S11326C03CA97801DD24CC24C82AD92AEA2AFB2A89
S11326D0FFEF8F2EFFEF9F2EA12CB12C8C209D207D
S11326E0AE20BF2087012227332709A71AA72BA7CB
S11326F03CA749AC5AAC6BAC7CAC2FEF3FEF40E04D
S113270050E0422253226422752229AD3AAD4BADEA
S11327105CAD8A012227332709AB1AAB2BAB3CAB48
S1132720C501B401A30192010E947F2069AF7AAF71
S11327308BAF9CAFC501B40129A93AA94BA95CA9E7
S11327400E947F204B015C0169A57AA58BA59CA5FD
S1132750A30192010E947F202B013C0169A57AA567
S11327608BA59CA529A93AA94BA95CA90E947F2005
S1132770AB01BC01840C951CA61CB71C09AD1AAD99
S11327802BAD3CADC901AA27BB27880E991EAA1EF2
S1132790BB1E84149504A604B70420F44050504092
S11327A06F4F7F4FC501AA27BB27840F951FA61F14
S11327B0B71F0DA51EA52FA538A9081719072A07A5
S11327C03B0718F180179107A207B307A1F554013D
S11327D09924882489AD9AADABADBCADA070B0701E
S11327E0880E991EAA1EBB1E4DA95EA96FA978ADBD
S11327F0032C04C0440F551F661F771F0A94D2F799
S1132800481559056A057B05B0F40894C108D10838
S1132810E108F10810C0442455243201CC24DD24FD
S113282076010CC044245524320181E0C82ED12CF9
S1132830E12CF12C03C0442455243201FE013196CD
S113284088E0DF011D928A95E9F7C982DA82EB827A
S1132850FC824D825E826F8278862C2D3A814B8178
S11328605C81642D7E818F8198852596ECACFDACCE
S11328700EAD1FAD2597E114F1040105110509F40E
S113288056C02195E1E0121608F0E0E03195F1E040
S1132890131608F0F0E0032F0E1BE1E0301708F0E8
S11328A0E0E0FE2B4195E1E0141608F0E0E0142F7F
S11328B01F1B31E0411708F030E0E32B5195F1E0A4
S11328C0151608F0F0E0B52FBE1B31E05B1708F0D9
S11328D030E0F32B6195E1E0161608F0E0E0462EB7
S11328E04F1A31E0641508F030E0E32B7195F1E004
S11328F0171608F0F0E0A72FAE1B31E07A1708F0A6
S113290030E0F32B8195E1E0181608F0E0E0F82EB2
S1132910FF1AFF2D31E08F1508F030E0E32B91957D
S1132920302F412F5B2F642D7A2F8F2F9E1BC85B76
S1132930DF4FE1E10C94DD20A4E3B0E0E2EAF4E14E
S11329400C94C120298B3A8B4B8B5C8B6D8B7E8BCB
S11329508F8B988FA986BA86CB86DC86ED86FE8619
S11329600F87188B89849A84AB84BC848D859E855B
S1132970AF85B88909891A892B893C890DA31EA3BF
S11329802FA338A7CD88DE88EF88F88C0097A1059F
S1132990B10509F0B5C3C814D904EA04FB0408F06E
S11329A04DC110E0811610E0910611E0A10610E07F
S11329B0B10658F42FEF82169104A104B10409F072
S11329C090F480E090E0DC0117C030E0831630E042
S11329D0930630E0A30631E0B30650F480E190E0C2
S11329E0A0E0B0E009C088E090E0A0E0B0E004C05E
S11329F088E190E0A0E0B0E0B501A401082E04C095
S1132A0076956795579547950A94D2F7FA01EE564D
S1132A10FF4F208140E250E060E070E0481B590B1A
S1132A206A0B7B0B421B5109610971094115510560
S1132A3061057105A1F1042E04C0880C991CAA1C1F
S1132A40BB1C0A94D2F797018601042E04C0000F20
S1132A50111F221F331F0A94D2F780E290E0841BD7
S1132A60950BCDA0DEA0EFA0F8A404C0F694E794E3
S1132A70D794C7948A95D2F7C02AD12AE22AF32A96
S1132A800DA11EA12FA138A504C0000F111F221FE4
S1132A90331F4A95D2F70DA31EA32FA338A72501F0
S1132AA066247724950184012070307009A31AA349
S1132AB02BA33CA3C701B601A30192010E949E204F
S1132AC02D8F3E8F4F8F58A3698F7A8F8B8F9C8F5A
S1132AD0C701B601A30192010E949E20CA01B90157
S1132AE029A13AA14BA15CA10E947F20AB01BC01AA
S1132AF0098D1A8D2B8D3C8D7801DD24CC240DA1FC
S1132B001EA12FA138A5C901AA27BB27C82AD92AE3
S1132B10EA2AFB2A0D8D1E8D2F8D38A1C416D506E9
S1132B20E606F70638F50150104020403040098F82
S1132B301A8F2B8F3C8FC80CD91CEA1CFB1CC814A1
S1132B40D904EA04FB04D0F0C416D506E606F70659
S1132B50A8F40D8D1E8D2F8D38A1025010402040F9
S1132B603040098F1A8F2B8F3C8FC80CD91CEA1C5C
S1132B70FB1C04C0098F1A8F2B8F3C8FC41AD50AF3
S1132B80E60AF70AC701B601A30192010E949E203A
S1132B902D8F3E8F4F8F58A369A77AA78BA79CA729
S1132BA0C701B601A30192010E949E20CA01B90186
S1132BB029A13AA14BA15CA10E947F206B017C0159
S1132BC049A55AA56BA57CA59A01112700274DA1FB
S1132BD05EA16FA178A560707070042B152B262B55
S1132BE0372B8D8D9E8DAF8DB8A10C151D052E052F
S1132BF03F05C0F40197A109B109080D191D2A1D4B
S1132C003B1D081519052A053B0560F00C151D052B
S1132C102E053F0538F48D8D9E8DAF8DB8A102979A
S1132C20A109B109098D1A8D2B8D3C8D7801DD2404
S1132C30CC24C82AD92AEA2AFB2AA5C481149104DF
S1132C40A104B10451F461E070E080E090E0A501DA
S1132C5094010E949E2049015A0110E0811610E05F
S1132C60910611E0A10610E0B10658F42FEF821688
S1132C709104A104B10409F090F480E090E0DC0137
S1132C8017C030E0831630E0930630E0A30631E04D
S1132C90B30650F480E190E0A0E0B0E009C088E021
S1132CA090E0A0E0B0E004C088E190E0A0E0B0E0F3
S1132CB0B501A401082E04C07695679557954795EC
S1132CC00A94D2F7FA01EE56FF4F2081AC01BD0100
S1132CD0420F511D611D711D80E290E0A0E0B0E043
S1132CE0841B950BA60BB70B51F4C818D908EA0836
S1132CF0FB08F1E04F2E512C612C712C24C1082EBD
S1132D0004C0880C991CAA1CBB1C0A94D2F7970116
S1132D108601042E04C036952795179507950A94C5
S1132D20D2F709A31AA32BA33CA397018601082E6B
S1132D3004C0000F111F221F331F0A94D2F70D8FF6
S1132D401E8F2F8F38A30DA11EA12FA138A504C05B
S1132D5036952795179507954A95D2F7B901A80195
S1132D600D8D1E8D2F8D38A1042B152B262B372B63
S1132D700D8F1E8F2F8F38A30DA11EA12FA138A553
S1132D8004C0000F111F221F331F8A95D2F70DA311
S1132D901EA32FA338A72501662477249501840157
S1132DA02070307009A71AA72BA73CA769A17AA1A4
S1132DB08BA19CA1A30192010E949E20298F3A8F8E
S1132DC04B8F5C8F6B017C0169A17AA18BA19CA1C3
S1132DD0A30192010E949E20CA01B90129A53AA526
S1132DE04BA55CA50E947F20AB01BC017601DD24CC
S1132DF0CC240D8D1E8D2F8D38A1C901AA27BB2788
S1132E00C82AD92AEA2AFB2A098D1A8D2B8D3C8DD2
S1132E10C416D506E606F70638F5015010402040E2
S1132E20304009A31AA32BA33CA3C80CD91CEA1C49
S1132E30FB1CC814D904EA04FB04D0F0C416D5065C
S1132E40E606F706A8F4098D1A8D2B8D3C8D0250E9
S1132E5010402040304009A31AA32BA33CA3C80C64
S1132E60D91CEA1CFB1C04C009A31AA32BA33CA372
S1132E70C41AD50AE60AF70AC701B601A3019201EA
S1132E800E949E20298F3A8F4B8F5C8F6DA77EA75F
S1132E908FA798ABC701B601A30192010E949E209F
S1132EA0CA01B90129A53AA54BA55CA50E947F20BA
S1132EB08B019C014DA55EA56FA578A9DA01992720
S1132EC088274D8D5E8D6F8D78A160707070842B16
S1132ED0952BA62BB72B498D5A8D6B8D7C8D801726
S1132EE09107A207B307F0F441505040604070408E
S1132EF0880D991DAA1DBB1D88159905AA05BB053A
S1132F0088F080179107A207B30760F4498D5A8DA2
S1132F106B8D7C8D4250504060407040880D991DEF
S1132F20AA1DBB1D6C017D01C01AD10AE20AF30A75
S1132F3009A11AA12BA13CA1380155244424442AF7
S1132F40552A662A772A8501222733270D8F1E8F5B
S1132F502F8F38A3950184012070307009A71AA718
S1132F602BA73CA7C701B6012D8D3E8D4F8D58A1CF
S1132F700E949E20298F3A8F4B8F5C8F69A37AA37E
S1132F808BA39CA3C701B6012D8D3E8D4F8D58A1F7
S1132F900E949E20CA01B90129A53AA54BA55CA5AA
S1132FA00E947F20AB01BC0109A11AA12BA13CA165
S1132FB07801DD24CC240DA11EA12FA138A5C901BF
S1132FC0AA27BB27C82AD92AEA2AFB2A098D1A8DDF
S1132FD02B8D3C8DC416D506E606F70638F5015050
S1132FE010402040304009A31AA32BA33CA3C80CD3
S1132FF0D91CEA1CFB1CC814D904EA04FB04D0F055
S1133000C416D506E606F706A8F4098D1A8D2B8D8D
S11330103C8D025010402040304009A31AA32BA33A
S11330203CA3C80CD91CEA1CFB1C04C009A31AA3AA
S11330302BA33CA3C41AD50AE60AF70AC701B601B2
S11330402D8D3E8D4F8D58A10E949E20298F3A8F41
S11330504B8F5C8F6DA77EA78FA798ABC701B60176
S11330602D8D3E8D4F8D58A10E949E20CA01B9011D
S113307029A53AA54BA55CA50E947F208B019C0144
S11330804DA55EA56FA578A9DA01992788274DA1DA
S11330905EA16FA178A560707070842B952BA62B10
S11330A0B72B498D5A8D6B8D7C8D80179107A207A4
S11330B0B307D0F44150504060407040880D991DD2
S11330C0AA1DBB1D88159905AA05BB0568F08017C4
S11330D09107A207B30740F4498D5A8D6B8D7C8DFF
S11330E0425050406040704009A11AA12BA13CA15C
S11330F07801DD24CC24C42AD52AE62AF72A46C23C
S1133100C816D906EA06FB0608F42DC2803010E082
S1133110910711E0A10710E0B10750F48F3F91052A
S1133120A105B10509F088F400E010E0980116C08B
S1133130803020E0920720E0A20721E0B20750F49B
S113314000E110E020E030E009C008E010E020E0F9
S113315030E004C008E110E020E030E0AC01BD0143
S1133160002E04C076956795579547950A94D2F733
S1133170FA01EE56FF4F4081040F111D211D311D30
S113318040E250E060E070E0401B510B620B730BB7
S1133190A1F48C159D05AE05BF0508F4EBC10DA186
S11331A01EA12FA138A54424552432010815190560
S11331B02A053B0508F0E1C1D9C1342E2C013D019B
S11331C004C0440C551C661C771C4A95D2F7D501E3
S11331D0C401002E04C0B695A795979587950A94C7
S11331E0D2F7482A592A6A2A7B2AA5019401032C7A
S11331F004C0220F331F441F551F0A94D2F729A776
S11332003AA74BA75CA7B701A601002E04C0769588
S11332106795579547950A94D2F749A35AA36BA388
S11332207CA3C701B601032C04C0660F771F881F57
S1133230991F0A94D2F76D8F7E8F8F8F98A38DA1DB
S11332409EA1AFA1B8A504C0B695A79597958795FB
S11332500A95D2F74D8D5E8D6F8D78A1482B592B31
S11332606A2B7B2B4D8F5E8F6F8F78A34301AA242B
S1133270BB2493018201207030700DA71EA72FA7D5
S113328038AB69A17AA18BA19CA1A50194010E94EC
S11332909E20298F3A8F4B8F5C8F6B017C0169A133
S11332A07AA18BA19CA1A50194010E949E20CA0130
S11332B0B9012DA53EA54FA558A90E947F20DC0188
S11332C0CB017601DD24CC240D8D1E8D2F8D38A1EC
S11332D0A90166277727C42AD52AE62AF72A098D61
S11332E01A8D2B8D3C8DC816D906EA06FB0638F5D7
S11332F0015010402040304009A31AA32BA33CA343
S1133300C40CD51CE61CF71CC414D504E604F7044D
S1133310D0F0C816D906EA06FB06A8F4098D1A8D62
S11333202B8D3C8D025010402040304009A31AA33D
S11333302BA33CA3C40CD51CE61CF71C04C009A396
S11333401AA32BA33CA3C81AD90AEA0AFB0AC70189
S1133350B601A50194010E949E20298F3A8F4B8FBC
S11333605C8F69AB7AAB8BAB9CABC701B601A50193
S113337094010E949E20CA01B9012DA53EA54FA526
S113338058A90E947F204B015C0149A95AA96BA945
S11333907CA99A01112700278D8D9E8DAF8DB8A130
S11333A0A070B070082B192B2A2B3B2B898D9A8D7A
S11333B0AB8DBC8D081519052A053B05E0F4019772
S11333C0A109B109040D151D261D371D0415150588
S11333D02605370580F0081519052A053B0558F41C
S11333E0898D9A8DAB8DBC8D0297A109B109040D0D
S11333F0151D261D371DB901A801481959096A0967
S11334007B094D8F5E8F6F8F78A309A11AA12BA121
S11334103CA17801DD24CC24C82AD92AEA2AFB2A33
S1133420FFEF8F2EFFEF9F2EA12CB12C8C209D201F
S1133430AE20BF20870122273327098F1A8F2B8FB5
S11334403C8F49A45AA46BA47CA42FEF3FEF40E027
S113345050E0422253226422752229A53AA54BA5A5
S11334605CA58A012227332709A31AA32BA33CA313
S1133470C501B401A30192010E947F2069A77AA724
S11334808BA79CA7C501B40129A13AA14BA15CA1BA
S11334900E947F204B015C01698D7A8D8B8D9C8D00
S11334A0A30192010E947F202B013C01698D7A8D3A
S11334B08B8D9C8D29A13AA14BA15CA10E947F20F8
S11334C0AB01BC01840C951CA61CB71C09A51AA54C
S11334D02BA53CA5C901AA27BB27880E991EAA1EA5
S11334E0BB1E84149504A604B70420F44050504035
S11334F06F4F7F4FC501AA27BB27840F951FA61FB7
S1133500B71F0D8D1E8D2F8D38A1081719072A0797
S11335103B0718F180179107A207B307A1F55401DF
S11335209924882489A59AA5ABA5BCA5A070B070E0
S1133530880E991EAA1EBB1E4DA15EA16FA178A57F
S1133540032C04C0440F551F661F771F0A94D2F73B
S1133550481559056A057B05B0F40894C108D108DB
S1133560E108F10810C0442455243201CC24DD24A0
S113357076010CC044245524320181E0C82ED12C9C
S1133580E12CF12C03C0442455243201FE01319670
S113359088E0DF011D928A95E9F7C982DA82EB821D
S11335A0FC824D825E826F8278862C2D3A814B811B
S11335B05C81642D7E818F819885E496E1E10C9491
S11335C0DD20A4E3B0E0E7EEFAE10C94C020F82F8C
S11335D0E92FA986BA86CB86DC86ED86FE860F8720
S11335E0188B89849A84AB84BC848D859E85AF8531
S11335F0B889298F3A8F4B8F5C8F6B01EF2EFE2E8B
S11336000097A105B10509F0A2C2C814D904EA04BF
S1133610FB0408F087C000E0801600E0900601E09B
S1133620A00600E0B00658F41FEF81169104A1042F
S1133630B10409F090F480E090E0DC0117C020E0D0
S1133640821620E0920620E0A20621E0B20650F4A1
S113365080E190E0A0E0B0E009C088E090E0A0E064
S1133660B0E004C088E190E0A0E0B0E0B501A401BE
S1133670082E04C076956795579547950A94D2F716
S1133680FA01EE56FF4F208140E250E060E070E026
S1133690481B590B6A0B7B0B421B510961097109C9
S11336A04D8F5E8F6F8F78A34115510561057105AC
S11336B009F485C12D8D022E04C0880C991CAA1C06
S11336C0BB1C0A94D2F7B701A601022E04C0440F12
S11336D0551F661F771F0A94D2F780E290E0AD8DE4
S11336E0BE8D8A1B9B0BC98CDA8CEB8CFC8C04C0C2
S11336F0F694E794D794C7948A95D2F7C42AD52A26
S1133700E62AF72A498D5A8D6B8D7C8D04C0440FAF
S1133710551F661F771F2A95D2F7498F5A8F6B8FD3
S11337207C8F4DC181149104A104B10451F461E072
S113373070E080E090E0A50194010E949E20490180
S11337405A0100E0801600E0900601E0A00600E0C7
S1133750B00658F41FEF81169104A104B10409F0D6
S113376090F480E090E0DC0117C020E0821620E0B5
S1133770920620E0A20621E0B20650F480E190E037
S1133780A0E0B0E009C088E090E0A0E0B0E004C0B0
S113379088E190E0A0E0B0E0B501A401082E04C0E7
S11337A076956795579547950A94D2F7FA01EE56A0
S11337B0FF4F2081820F911DA11DB11D00E210E079
S11337C020E030E0081B190B2A0B3B0B0D8F1E8FDA
S11337D02F8F38A3011511052105310529F4C818C7
S11337E0D908EA08FB08EBC02D8D022E04C0880C12
S11337F0991CAA1CBB1C0A94D2F7B701A601082E77
S113380004C076956795579547950A94D2F749A7CA
S11338105AA76BA77CA7B701A601022E04C0440FC8
S1133820551F661F771F0A94D2F7C98CDA8CEB8C6C
S1133830FC8C04C0F694E794D794C7948A95D2F785
S11338404C295D296E297F2949A35AA36BA37CA324
S1133850E98CFA8C0B8D1C8D04C0EE0CFF1C001F30
S1133860111F2A95D2F7E98EFA8E0B8F1C8F250132
S11338706624772495018401207030700DA31EA363
S11338802FA338A769A57AA58BA59CA5A3019201AE
S11338900E949E20022FC32E142FF52E6DA77EA703
S11338A08FA798AB69A57AA58BA59CA5A3019201C6
S11338B00E949E20602F7C2D812F9F2D2DA13EA143
S11338C04FA158A50E947F20DC01CB010DA51EA5A8
S11338D02FA538A97801DD24CC2409A11AA12BA194
S11338E03CA1A90166277727C42AD52AE62AF72A04
S11338F0C816D906EA06FB0690F4C80CD91CEA1CC3
S1133900FB1CC814D904EA04FB0448F0C816D90601
S1133910EA06FB0620F4C80CD91CEA1CFB1CC81AD6
S1133920D90AEA0AFB0AC701B601A30192010E945F
S11339309E20122F032F342E252E69A77AA78BA73A
S11339409CA7C701B601A30192010E949E20612F8A
S1133950702F832D922D2DA13EA14FA158A50E9419
S11339607F20DC01CB0109A51AA52BA53CA5780174
S1133970DD24CC2449A15AA16BA17CA16070707094
S1133980C42AD52AE62AF72AC816D906EA06FB0667
S113399090F4C80CD91CEA1CFB1CC814D904EA0412
S11339A0FB0448F0C816D906EA06FB0620F4C80C46
S11339B0D91CEA1CFB1CC81AD90AEA0AFB0A8501AD
S11339C02227332709A31AA32BA33CA3950184011F
S11339D02070307009A71AA72BA73CA7C701B6010E
S11339E029A13AA14BA15CA10E949E20122F032F72
S11339F0442E752E6DA37EA38FA398A7C701B6018D
S1133A0029A13AA14BA15CA10E949E20612F702F95
S1133A10842D972D29A53AA54BA55CA50E947F204E
S1133A20DC01CB010DA11EA12FA138A57801DD2455
S1133A30CC24098D1A8D2B8D3C8DA90166277727FF
S1133A40C42AD52AE62AF72AC816D906EA06FB06A6
S1133A5090F4C80CD91CEA1CFB1CC814D904EA0451
S1133A60FB0448F0C816D906EA06FB0620F4C80C85
S1133A70D91CEA1CFB1CC81AD90AEA0AFB0AC701AA
S1133A80B60129A13AA14BA15CA10E949E20122F4C
S1133A90032F442E752E6DA37EA38FA398A7C70171
S1133AA0B60129A13AA14BA15CA10E949E20612FDD
S1133AB0702F842D972D29A53AA54BA55CA50E94AE
S1133AC07F20AB01BC01CDA0DEA0EFA0F8A4D601FD
S1133AD099278827098D1A8D2B8D3C8D2070307085
S1133AE0802B912BA22BB32B84179507A607B7071E
S1133AF090F4880D991DAA1DBB1D88159905AA056A
S1133B00BB0548F084179507A607B70720F4880D6E
S1133B10991DAA1DBB1D841B950BA60BB70B8C010D
S1133B209D010D8C04C036952795179507950A9429
S1133B30D2F709831A832B833C831D821E821F8242
S1133B401886202F3A814B815C8160E0D1C2C8166F
S1133B50D906EA06FB0618F48F2F9E2FCCC28030BC
S1133B6000E0900701E0A00700E0B00750F48F3FA9
S1133B709105A105B10509F088F400E010E0980171
S1133B8016C0803010E0910710E0A10711E0B107E2
S1133B9050F400E110E020E030E009C008E010E05B
S1133BA020E030E004C008E110E020E030E0AC01A7
S1133BB0BD01002E04C076956795579547950A94E4
S1133BC0D2F7FA01EE56FF4F4081040F111D211D5B
S1133BD0311D40E250E060E070E0401B510B620B8D
S1133BE0730B09F040C08C159D05AE05BF0548F068
S1133BF0098D1A8D2B8D3C8D081519052A053B0559
S1133C0020F1498D5A8D6B8D7C8D481959096A09AB
S1133C107B09C81AD90AEA0AFB0A81E090E0A0E00D
S1133C20B0E0898C9A8CAB8CBC8C84169506A60665
S1133C30B70618F080E090E0DC01C81AD90AEA0A55
S1133C40FB0A498F5A8F6B8F7C8F098D1A8D2B8DB0
S1133C503C8D09831A832B833C83CD82DE82EF82E1
S1133C60F886298D41C2342EAC01BD01032C04C059
S1133C70440F551F661F771F0A94D2F7202ED501D3
S1133C80C40104C0B695A795979587950A95D2F770
S1133C90482B592B6A2B7B2B4D8F5E8F6F8F78A30C
S1133CA095018401032C04C0000F111F221F331F30
S1133CB00A94D2F709A71AA72BA73CA746015701D4
S1133CC0022C04C0B694A794979487940A94D2F7CC
S1133CD08DA29EA2AFA2B8A697018601032C04C0B0
S1133CE0000F111F221F331F0A94D2F7898D9A8D5A
S1133CF0AB8DBC8D022C04C0B695A795979587957E
S1133D000A94D2F7082B192B2A2B3B2B09A31AA3AD
S1133D102BA33CA3898C9A8CAB8CBC8C032C04C045
S1133D20880C991CAA1CBB1C0A94D2F7898E9A8E03
S1133D30AB8EBC8E4B01AA24BB24607070704DA75F
S1133D405EA76FA778AB6DA17EA18FA198A5A501F1
S1133D5094010E949E2029013A016B017C016DA10E
S1133D607EA18FA198A5A50194010E949E20C30164
S1133D70B2012DA53EA54FA558A90E947F20DC01C4
S1133D80CB017601DD24CC2409A11AA12BA13CA1ED
S1133D90A90166277727C42AD52AE62AF72AC8164E
S1133DA0D906EA06FB0678F593018201015010401A
S1133DB0204030400DA31EA32FA338A70D8D1E8DC8
S1133DC02F8D38A1C00ED11EE21EF31EC016D106DF
S1133DD0E206F306E0F0C816D906EA06FB06B8F4D4
S1133DE09301820102501040204030400DA31EA3D5
S1133DF02FA338A70D8D1E8D2F8D38A1C00ED11E77
S1133E00E21EF31E04C04DA25EA26FA278A6C81AD9
S1133E10D90AEA0AFB0AC701B601A50194010E9466
S1133E209E2029013A0169AB7AAB8BAB9CABC701ED
S1133E30B601A50194010E949E20C301B2012DA5E3
S1133E403EA54FA558A90E947F208B019C0189A8FB
S1133E509AA8ABA8BCA8B4015527442789A19AA164
S1133E60ABA1BCA1A070B070482B592B6A2B7B2B43
S1133E70D301C2014017510762077307F0F4019799
S1133E80A109B109AD8CBE8CCF8CD8A04A0D5B1DA5
S1133E906C1D7D1D4A155B056C057D0570F0401792
S1133EA051076207730748F4D301C2010297A109BD
S1133EB0B1094A0D5B1D6C1D7D1D6A017B01C01A91
S1133EC0D10AE20AF30AC9A2DAA2EBA2FCA2EDA08B
S1133ED0FEA00FA118A5B70155274427482B592B3D
S1133EE06A2B7B2BFFEFCF2EFFEFDF2EE12CF12C83
S1133EF0C422D522E622F7222B016624772489A442
S1133F009AA4ABA4BCA40FEF1FEF20E030E0802202
S1133F109122A222B32229A53AA54BA55CA58A0128
S1133F20222733270DA31EA32FA338A7C701B60149
S1133F30A50194010E947F206DA77EA78FA798AB4F
S1133F40C701B6012DA13EA14FA158A50E947F2013
S1133F506B017C01C301B201A50194010E947F2081
S1133F604B015C01C301B2012DA13EA14FA158A593
S1133F700E947F20AB01BC01C80CD91CEA1CFB1CAD
S1133F800DA51EA52FA538A9C901AA27BB27C80EB0
S1133F90D91EEA1EFB1EC814D904EA04FB0420F44B
S1133FA0405050406F4F7F4FC701AA27BB27840F53
S1133FB0951FA61FB71F7601DD24CC244DA55EA551
S1133FC06FA578A960707070C40ED51EE61EF71E2A
S1133FD089A09AA0ABA0BCA088169906AA06BB0625
S1133FE070F088159905AA05BB0599F5098D1A8DF8
S1133FF02B8D3C8D0C151D052E053F0550F5B70185
S1134000A60189A49AA4ABA4BCA4481959096A09B5
S11340107B098C019D018D8C9E8CAF8CB8A00819F6
S113402019092A093B0981E090E0A0E0B0E0C41638
S1134030D506E606F70618F080E090E0DC015801AA
S11340406901A81AB90ACA0ADB0AD601C5016A01BC
S11340507B01898C9A8CAB8CBC8C8C189D08AE0827
S1134060BF0849A15AA16BA17CA1481B590B6A0B3B
S11340707B0B81E090E0A0E0B0E0C98CDA8CEB8CA3
S1134080FC8CC814D904EA04FB0418F080E090E026
S1134090DC01481B590B6A0B7B0B8A019B0104C092
S11340A0000F111F221F331F2A94D2F7032C04C0C0
S11340B0B694A794979487940A94D2F70829192957
S11340C02A293B2909831A832B833C836A017B01B8
S11340D004C0F694E794D794C7943A94D2F7CD8267
S11340E0DE82EF82F886202F3A814B815C816C2D31
S11340F07E818F819885E496E2E10C94DC20629FB6
S1134100D001739FF001829FE00DF11D649FE00DCB
S1134110F11D929FF00D839FF00D749FF00D659F2C
S1134120F00D9927729FB00DE11DF91F639FB00D2B
S1134130E11DF91FBD01CF0111240895A1E21A2E3A
S1134140AA1BBB1BFD010DC0AA1FBB1FEE1FFF1F37
S1134150A217B307E407F50720F0A21BB30BE40B87
S1134160F50B661F771F881F991F1A9469F76095CE
S11341707095809590959B01AC01BD01CF01089588
S11341802F923F924F925F926F927F928F929F9263
S1134190AF92BF92CF92DF92EF92FF920F931F9351
S11341A0CF93DF93CDB7DEB7CA1BDB0B0FB6F89402
S11341B0DEBF0FBECDBF09942A88398848885F8442
S11341C06E847D848C849B84AA84B984C884DF80B3
S11341D0EE80FD800C811B81AA81B981CE0FD11D97
S11341E00FB6F894DEBF0FBECDBFED010895F8946D
S10541F0FFCFFB
S11341F23738392F3435362A3132332D41303D2B7D
S113420257656C636F6D650053796E7461782045F0
S113421272726F72004572726F723A20446976202C
S1134222300000010202030303030404040404042F
S1134232040405050505050505050505050505052A
S1134242050506060606060606060606060606060A
S113425206060606060606060606060606060606F8
S113426206060707070707070707070707070707DA
S113427207070707070707070707070707070707C8
S113428207070707070707070707070707070707B8
S113429207070707070707070707070707070707A8
S11342A2070708080808080808080808080808088A
S11342B20808080808080808080808080808080878
S11342C20808080808080808080808080808080868
S11342D20808080808080808080808080808080858
S11342E20808080808080808080808080808080848
S11342F20808080808080808080808080808080838
S11343020808080808080808080808080808080827
S11343120808080808080808080808080808080817
S1054322080885
S9030000FC
